{
  "contractName": "ControlPanel",
  "abi": [
    {
      "inputs": [
        {
          "internalType": "address",
          "name": "orgAddress",
          "type": "address"
        }
      ],
      "stateMutability": "nonpayable",
      "type": "constructor"
    },
    {
      "inputs": [],
      "name": "verifyOwnership",
      "outputs": [
        {
          "internalType": "bool",
          "name": "success",
          "type": "bool"
        }
      ],
      "stateMutability": "nonpayable",
      "type": "function"
    },
    {
      "inputs": [
        {
          "internalType": "uint256",
          "name": "newRate",
          "type": "uint256"
        }
      ],
      "name": "setRate",
      "outputs": [
        {
          "internalType": "uint256",
          "name": "updatedRate",
          "type": "uint256"
        },
        {
          "internalType": "string",
          "name": "symbol",
          "type": "string"
        }
      ],
      "stateMutability": "nonpayable",
      "type": "function"
    },
    {
      "inputs": [
        {
          "internalType": "uint256",
          "name": "maxBuy",
          "type": "uint256"
        }
      ],
      "name": "setMaxBuy",
      "outputs": [
        {
          "internalType": "bool",
          "name": "success",
          "type": "bool"
        },
        {
          "internalType": "uint256",
          "name": "updatedMaximumBuyAmount",
          "type": "uint256"
        }
      ],
      "stateMutability": "nonpayable",
      "type": "function"
    },
    {
      "inputs": [],
      "name": "adminCount",
      "outputs": [
        {
          "internalType": "uint256",
          "name": "admins",
          "type": "uint256"
        }
      ],
      "stateMutability": "view",
      "type": "function"
    },
    {
      "inputs": [],
      "name": "showOrganizationDetail",
      "outputs": [
        {
          "internalType": "uint256",
          "name": "TotalTokens",
          "type": "uint256"
        },
        {
          "internalType": "string",
          "name": "OwnerEmail",
          "type": "string"
        },
        {
          "internalType": "address",
          "name": "Address",
          "type": "address"
        },
        {
          "internalType": "string",
          "name": "TokenSymbol",
          "type": "string"
        }
      ],
      "stateMutability": "view",
      "type": "function"
    },
    {
      "inputs": [
        {
          "internalType": "address",
          "name": "newAdminAddress",
          "type": "address"
        },
        {
          "internalType": "string",
          "name": "newAdminEmail",
          "type": "string"
        },
        {
          "internalType": "uint256",
          "name": "newAdminSpendingLimit",
          "type": "uint256"
        }
      ],
      "name": "addAdmin",
      "outputs": [
        {
          "internalType": "string",
          "name": "",
          "type": "string"
        },
        {
          "internalType": "uint256",
          "name": "",
          "type": "uint256"
        }
      ],
      "stateMutability": "nonpayable",
      "type": "function"
    },
    {
      "inputs": [
        {
          "internalType": "string",
          "name": "adminEmail",
          "type": "string"
        }
      ],
      "name": "removeAdmin",
      "outputs": [
        {
          "internalType": "address",
          "name": "removedAdmin",
          "type": "address"
        }
      ],
      "stateMutability": "nonpayable",
      "type": "function"
    },
    {
      "inputs": [
        {
          "internalType": "string",
          "name": "adminEmail",
          "type": "string"
        }
      ],
      "name": "showAdminDetail",
      "outputs": [
        {
          "internalType": "address",
          "name": "walletAddress",
          "type": "address"
        },
        {
          "internalType": "string",
          "name": "email",
          "type": "string"
        },
        {
          "internalType": "uint256",
          "name": "spendingLimit",
          "type": "uint256"
        }
      ],
      "stateMutability": "view",
      "type": "function"
    },
    {
      "inputs": [
        {
          "internalType": "string",
          "name": "adminEmail",
          "type": "string"
        }
      ],
      "name": "getAdminBalance",
      "outputs": [
        {
          "internalType": "address",
          "name": "user",
          "type": "address"
        },
        {
          "internalType": "uint256",
          "name": "balance",
          "type": "uint256"
        }
      ],
      "stateMutability": "view",
      "type": "function"
    },
    {
      "inputs": [
        {
          "internalType": "address",
          "name": "userAddress",
          "type": "address"
        }
      ],
      "name": "getAddressBalance",
      "outputs": [
        {
          "internalType": "address",
          "name": "user",
          "type": "address"
        },
        {
          "internalType": "uint256",
          "name": "balance",
          "type": "uint256"
        }
      ],
      "stateMutability": "view",
      "type": "function"
    },
    {
      "inputs": [
        {
          "internalType": "address",
          "name": "to",
          "type": "address"
        },
        {
          "internalType": "uint256",
          "name": "amount",
          "type": "uint256"
        }
      ],
      "name": "transfer",
      "outputs": [
        {
          "internalType": "bool",
          "name": "success",
          "type": "bool"
        }
      ],
      "stateMutability": "nonpayable",
      "type": "function"
    },
    {
      "inputs": [
        {
          "internalType": "address",
          "name": "spender",
          "type": "address"
        },
        {
          "internalType": "uint256",
          "name": "amount",
          "type": "uint256"
        }
      ],
      "name": "increaseAllowance",
      "outputs": [
        {
          "internalType": "bool",
          "name": "success",
          "type": "bool"
        }
      ],
      "stateMutability": "nonpayable",
      "type": "function"
    },
    {
      "inputs": [
        {
          "internalType": "address",
          "name": "spender",
          "type": "address"
        },
        {
          "internalType": "uint256",
          "name": "amount",
          "type": "uint256"
        }
      ],
      "name": "decreaseAllowance",
      "outputs": [
        {
          "internalType": "bool",
          "name": "success",
          "type": "bool"
        }
      ],
      "stateMutability": "nonpayable",
      "type": "function"
    },
    {
      "inputs": [],
      "name": "toggleSales",
      "outputs": [
        {
          "internalType": "bool",
          "name": "success",
          "type": "bool"
        },
        {
          "internalType": "bool",
          "name": "salesOpen",
          "type": "bool"
        }
      ],
      "stateMutability": "nonpayable",
      "type": "function"
    },
    {
      "inputs": [],
      "name": "showRate",
      "outputs": [
        {
          "internalType": "uint256",
          "name": "tokenRate",
          "type": "uint256"
        },
        {
          "internalType": "uint256",
          "name": "maximumBuy",
          "type": "uint256"
        }
      ],
      "stateMutability": "view",
      "type": "function"
    },
    {
      "inputs": [],
      "name": "buyTokens",
      "outputs": [
        {
          "internalType": "address",
          "name": "purchasedBy",
          "type": "address"
        },
        {
          "internalType": "uint256",
          "name": "amount",
          "type": "uint256"
        }
      ],
      "stateMutability": "payable",
      "type": "function"
    }
  ],
  "bytecode": "0x608060405234801561001057600080fd5b506040516119ed3803806119ed8339818101604052602081101561003357600080fd5b5051600180546001600160a01b0319166001600160a01b0390921691909117905561198a806100636000396000f3fe6080604052600436106100f35760003560e01c806392a427041161008a578063b8c6b6d611610059578063b8c6b6d614610744578063d0febe4c146107f5578063dbd30ae0146107fd578063f53bc8351461082d576100f3565b806392a427041461057e578063a457c2d714610593578063a9059cbb146105cc578063b314cdca14610605576100f3565b806334fcf437116100c657806334fcf4371461044157806335046722146104ad578063395093511461050357806368f8372a14610550576100f3565b806308b73f2c146100f857806310ed2df91461023a578063158a2ae0146103075780632b7832b31461041a575b600080fd5b34801561010457600080fd5b506101bb6004803603606081101561011b57600080fd5b6001600160a01b038235169190810190604081016020820135600160201b81111561014557600080fd5b82018360208201111561015757600080fd5b803590602001918460018302840111600160201b8311171561017857600080fd5b91908080601f0160208091040260200160405190810160405280939291908181526020018383808284376000920191909152509295505091359250610872915050565b6040518080602001838152602001828103825284818151815260200191508051906020019080838360005b838110156101fe5781810151838201526020016101e6565b50505050905090810190601f16801561022b5780820380516001836020036101000a031916815260200191505b50935050505060405180910390f35b34801561024657600080fd5b506102eb6004803603602081101561025d57600080fd5b810190602081018135600160201b81111561027757600080fd5b82018360208201111561028957600080fd5b803590602001918460018302840111600160201b831117156102aa57600080fd5b91908080601f016020809104026020016040519081016040528093929190818152602001838380828437600092019190915250929550610a40945050505050565b604080516001600160a01b039092168252519081900360200190f35b34801561031357600080fd5b5061031c610b26565b6040518085815260200180602001846001600160a01b03166001600160a01b0316815260200180602001838103835286818151815260200191508051906020019080838360005b8381101561037b578181015183820152602001610363565b50505050905090810190601f1680156103a85780820380516001836020036101000a031916815260200191505b50838103825284518152845160209182019186019080838360005b838110156103db5781810151838201526020016103c3565b50505050905090810190601f1680156104085780820380516001836020036101000a031916815260200191505b50965050505050505060405180910390f35b34801561042657600080fd5b5061042f610d2b565b60408051918252519081900360200190f35b34801561044d57600080fd5b5061046b6004803603602081101561046457600080fd5b5035610da1565b604051808381526020018060200182810382528381815181526020019150805190602001908083836000838110156101fe5781810151838201526020016101e6565b3480156104b957600080fd5b506104e0600480360360208110156104d057600080fd5b50356001600160a01b0316610ef4565b604080516001600160a01b03909316835260208301919091528051918290030190f35b34801561050f57600080fd5b5061053c6004803603604081101561052657600080fd5b506001600160a01b038135169060200135610f7e565b604080519115158252519081900360200190f35b34801561055c57600080fd5b5061056561100c565b6040805192835260208301919091528051918290030190f35b34801561058a57600080fd5b5061053c6110da565b34801561059f57600080fd5b5061053c600480360360408110156105b657600080fd5b506001600160a01b03813516906020013561116a565b3480156105d857600080fd5b5061053c600480360360408110156105ef57600080fd5b506001600160a01b0381351690602001356111c3565b34801561061157600080fd5b506106b66004803603602081101561062857600080fd5b810190602081018135600160201b81111561064257600080fd5b82018360208201111561065457600080fd5b803590602001918460018302840111600160201b8311171561067557600080fd5b91908080601f01602080910402602001604051908101604052809392919081815260200183838082843760009201919091525092955061121c945050505050565b604080516001600160a01b0385168152908101829052606060208083018281528551928401929092528451608084019186019080838360005b838110156107075781810151838201526020016106ef565b50505050905090810190601f1680156107345780820380516001836020036101000a031916815260200191505b5094505050505060405180910390f35b34801561075057600080fd5b506104e06004803603602081101561076757600080fd5b810190602081018135600160201b81111561078157600080fd5b82018360208201111561079357600080fd5b803590602001918460018302840111600160201b831117156107b457600080fd5b91908080601f0160208091040260200160405190810160405280939291908181526020018383808284376000920191909152509295506113d2945050505050565b6104e0611481565b34801561080957600080fd5b5061081261163d565b60408051921515835290151560208301528051918290030190f35b34801561083957600080fd5b506108576004803603602081101561085057600080fd5b50356116bb565b60408051921515835260208301919091528051918290030190f35b600154604051635e5fb5f360e01b81526001600160a01b0385811660048301908152604483018590523360648401819052608060248501908152875160848601528751606096600096951694635e5fb5f3948b948b948b949193909160a49091019060208701908083838e5b838110156108f65781810151838201526020016108de565b50505050905090810190601f1680156109235780820380516001836020036101000a031916815260200191505b5095505050505050600060405180830381600087803b15801561094557600080fd5b505af1158015610959573d6000803e3d6000fd5b505050506040513d6000823e601f3d908101601f19168201604090815281101561098257600080fd5b8101908080516040519392919084600160201b8211156109a157600080fd5b9083019060208201858111156109b657600080fd5b8251600160201b8111828201881017156109cf57600080fd5b82525081516020918201929091019080838360005b838110156109fc5781810151838201526020016109e4565b50505050905090810190601f168015610a295780820380516001836020036101000a031916815260200191505b506040526020015192989297509195505050505050565b6001546040805163f6244c8f60e01b81523360248201819052600482019283528451604483015284516000946001600160a01b03169363f6244c8f9387939282916064019060208601908083838c5b83811015610aa7578181015183820152602001610a8f565b50505050905090810190601f168015610ad45780820380516001836020036101000a031916815260200191505b509350505050602060405180830381600087803b158015610af457600080fd5b505af1158015610b08573d6000803e3d6000fd5b505050506040513d6020811015610b1e57600080fd5b505192915050565b6000606060006060600160009054906101000a90046001600160a01b03166001600160a01b031663158a2ae06040518163ffffffff1660e01b815260040160006040518083038186803b158015610b7c57600080fd5b505afa158015610b90573d6000803e3d6000fd5b505050506040513d6000823e601f3d908101601f191682016040526080811015610bb957600080fd5b815160208301805160405192949293830192919084600160201b821115610bdf57600080fd5b908301906020820185811115610bf457600080fd5b8251600160201b811182820188101715610c0d57600080fd5b82525081516020918201929091019080838360005b83811015610c3a578181015183820152602001610c22565b50505050905090810190601f168015610c675780820380516001836020036101000a031916815260200191505b50604081815260208301519201805192949193919284600160201b821115610c8e57600080fd5b908301906020820185811115610ca357600080fd5b8251600160201b811182820188101715610cbc57600080fd5b82525081516020918201929091019080838360005b83811015610ce9578181015183820152602001610cd1565b50505050905090810190601f168015610d165780820380516001836020036101000a031916815260200191505b50604052505050935093509350935090919293565b60015460408051632b7832b360e01b815290516000926001600160a01b031691632b7832b3916004808301926020929190829003018186803b158015610d7057600080fd5b505afa158015610d84573d6000803e3d6000fd5b505050506040513d6020811015610d9a57600080fd5b5051905090565b600154604080516391d9307760e01b81526004810184905233602482015290516000926060926001600160a01b03909116916391d9307791604480820192879290919082900301818387803b158015610df957600080fd5b505af1158015610e0d573d6000803e3d6000fd5b505050506040513d6000823e601f3d908101601f191682016040908152811015610e3657600080fd5b815160208301805160405192949293830192919084600160201b821115610e5c57600080fd5b908301906020820185811115610e7157600080fd5b8251600160201b811182820188101715610e8a57600080fd5b82525081516020918201929091019080838360005b83811015610eb7578181015183820152602001610e9f565b50505050905090810190601f168015610ee45780820380516001836020036101000a031916815260200191505b5060405250505091509150915091565b60015460408051631a82339160e11b81526001600160a01b038481166004830152825160009485949216926335046722926024808301939192829003018186803b158015610f4157600080fd5b505afa158015610f55573d6000803e3d6000fd5b505050506040513d6040811015610f6b57600080fd5b5080516020909101519092509050915091565b60015460408051633950935160e01b81526001600160a01b038581166004830152602482018590529151600093929092169163395093519160448082019260209290919082900301818787803b158015610fd757600080fd5b505af1158015610feb573d6000803e3d6000fd5b505050506040513d602081101561100157600080fd5b505190505b92915050565b600080548190600160a01b900460ff166110575760405162461bcd60e51b815260040180806020018281038252604781526020018061190e6047913960600191505060405180910390fd5b60015460408051630f8b5c0160e21b8152815160009384936001600160a01b0390911692633e2d70049260048083019392829003018186803b15801561109c57600080fd5b505afa1580156110b0573d6000803e3d6000fd5b505050506040513d60408110156110c657600080fd5b508051602090910151909450925050509091565b60015460408051632cc9c15160e01b815233600482015290516000926001600160a01b031691632cc9c15191602480830192602092919082900301818787803b15801561112657600080fd5b505af115801561113a573d6000803e3d6000fd5b505050506040513d602081101561115057600080fd5b5050600080546001600160a01b0319163317905550600190565b6001546040805163a457c2d760e01b81526001600160a01b038581166004830152602482018590529151600093929092169163a457c2d79160448082019260209290919082900301818787803b158015610fd757600080fd5b6001546040805163a9059cbb60e01b81526001600160a01b038581166004830152602482018590529151600093929092169163a9059cbb9160448082019260209290919082900301818787803b158015610fd757600080fd5b60015460405163160d182d60e31b815260206004820181815284516024840152845160009460609486946001600160a01b039092169363b068c16893899391928392604490910191908501908083838b5b8381101561128557818101518382015260200161126d565b50505050905090810190601f1680156112b25780820380516001836020036101000a031916815260200191505b509250505060006040518083038186803b1580156112cf57600080fd5b505afa1580156112e3573d6000803e3d6000fd5b505050506040513d6000823e601f3d908101601f19168201604052606081101561130c57600080fd5b815160208301805160405192949293830192919084600160201b82111561133257600080fd5b90830190602082018581111561134757600080fd5b8251600160201b81118282018810171561136057600080fd5b82525081516020918201929091019080838360005b8381101561138d578181015183820152602001611375565b50505050905090810190601f1680156113ba5780820380516001836020036101000a031916815260200191505b50604052602001519398929750929550909350505050565b600154604051635687cd1360e01b815260206004820181815284516024840152845160009485946001600160a01b0390911693635687cd1393889390928392604490910191908501908083838b5b83811015611438578181015183820152602001611420565b50505050905090810190601f1680156114655780820380516001836020036101000a031916815260200191505b5092505050604080518083038186803b158015610f4157600080fd5b600080548190600160a01b900460ff166114cc5760405162461bcd60e51b815260040180806020018281038252604781526020018061190e6047913960600191505060405180910390fd5b60003411611521576040805162461bcd60e51b815260206004820152601760248201527f54686520746f6b656e73206172656e2774206672656521000000000000000000604482015290519081900360640190fd5b600061152b61100c565b5090506000811161156d5760405162461bcd60e51b81526004018080602001828103825260268152602001806118e86026913960400191505060405180910390fd5b803410156115ac5760405162461bcd60e51b815260040180806020018281038252603d81526020018061188a603d913960400191505060405180910390fd5b60006115d6826115ca34670de0b6b3a764000063ffffffff61172216565b9063ffffffff61178216565b600154604080516303a9440d60e11b81523360048201526024810184905281519394506001600160a01b0390921692630752881a9260448082019392918290030181600087803b15801561162957600080fd5b505af11580156110b0573d6000803e3d6000fd5b6000805481906001600160a01b031633146116895760405162461bcd60e51b81526004018080602001828103825260288152602001806118626028913960400191505060405180910390fd5b50506000805460ff600160a01b808304821615810260ff60a01b19909316929092179283905560019291909104169091565b600154604080516373ef0ba560e01b815260048101849052336024820152815160009384936001600160a01b03909116926373ef0ba5926044808301939282900301818787803b15801561170e57600080fd5b505af1158015610f55573d6000803e3d6000fd5b60008261173157506000611006565b8282028284828161173e57fe5b041461177b5760405162461bcd60e51b81526004018080602001828103825260218152602001806118c76021913960400191505060405180910390fd5b9392505050565b600061177b83836040518060400160405280601a81526020017f536166654d6174683a206469766973696f6e206279207a65726f0000000000008152506000818361184b5760405162461bcd60e51b81526004018080602001828103825283818151815260200191508051906020019080838360005b838110156118105781810151838201526020016117f8565b50505050905090810190601f16801561183d5780820380516001836020036101000a031916815260200191505b509250505060405180910390fd5b50600083858161185757fe5b049594505050505056fe596f7520646f206e6f206861766520746865207065726d697373696f6e20746f20646f2074686973596f7520646f206e6f74206861766520656e6f75676820746f206d616b6520612070757263686173652c20706c6561736520636865636b20726174652e536166654d6174683a206d756c7469706c69636174696f6e206f766572666c6f7741646d696e20686173206e6f74207370656369666965642072617465206f6620746f6b656e7353616c65732069732063757272656e746c792064697361626c65642e20436f6e746163742061646d696e6973747261746f7220697320746869732069732061206d697374616b65a264697066735822122023762add962052c836dee51b347ef51bd638e0b2731b31f8ff2260b61d47574c64736f6c634300060a0033",
  "immutableReferences": {},
  "source": "//SPDX-License-Identifier: MIT\npragma solidity >= 0.5.0 < 0.7.0;\n\nimport './Organization.sol';\n\ncontract ControlPanel {\n    \n    using SafeMath for uint256;\n    using Address for address;\n    \n    address private _owner;\n    bool private _allowSales;\n    \n    Organization organization;\n    constructor (address orgAddress) public {\n        organization = Organization(orgAddress);\n    }\n    \n    function verifyOwnership() public returns(bool success){\n        organization.verifyOwnership(msg.sender);\n        _owner = msg.sender;\n        return true;\n    }\n    \n    function setRate(uint256 newRate) public returns(uint256 updatedRate, string memory symbol) {\n        return organization.setRate(newRate, msg.sender);\n    }\n    \n    function setMaxBuy(uint256 maxBuy) public returns(bool success, uint256 updatedMaximumBuyAmount) {\n        return organization.setMaximumBuy(maxBuy, msg.sender);\n    }\n    \n    function adminCount() public view returns(uint256 admins) {\n        return organization.adminCount();\n    }\n    \n    function showOrganizationDetail() public view returns(\n      uint256 TotalTokens,\n      string memory OwnerEmail,\n      address Address,\n      string memory TokenSymbol\n      ) {\n        return organization.showOrganizationDetail();\n    }\n    \n    function addAdmin(\n        address newAdminAddress,\n        string memory newAdminEmail,\n        uint256 newAdminSpendingLimit\n    ) public returns (string memory, uint256) {\n        return organization.addAdmin(newAdminAddress, newAdminEmail, newAdminSpendingLimit, msg.sender);\n    }\n    \n    function removeAdmin(string memory adminEmail) public returns(address removedAdmin) {\n        return organization.removeAdmin(bytes(adminEmail), msg.sender);\n    }\n    \n    function showAdminDetail(string memory adminEmail) view public returns(address walletAddress, string memory email, uint256 spendingLimit) {\n        return organization.showAdminDetail(bytes(adminEmail));\n    }\n    \n    function getAdminBalance(string memory adminEmail) public view returns(address user, uint256 balance) {\n        return organization.getAdminBalance(bytes(adminEmail));\n    }\n    \n    function getAddressBalance(address userAddress) public view returns(address user, uint256 balance) {\n        return organization.getAddressBalance(userAddress);\n    }\n    \n    function transfer(address to, uint256 amount) public returns(bool success) {\n        return organization.transfer(to, amount);\n    }\n    \n    function increaseAllowance(address spender, uint256 amount) public returns(bool success) {\n        return organization.increaseAllowance(spender, amount);\n    }\n    \n    function decreaseAllowance(address spender, uint256 amount) public returns(bool success) {\n        return organization.decreaseAllowance(spender, amount);\n    }\n    \n    function toggleSales() public returns(bool success, bool salesOpen){\n        require(msg.sender == _owner, \"You do no have the permission to do this\");\n        _allowSales = !_allowSales;\n        return(true, _allowSales);\n    }\n    \n    function showRate() public view returns(uint256 tokenRate, uint256 maximumBuy) {\n        require(_allowSales, \"Sales is currently disabled. Contact administrator is this is a mistake\");\n        (uint256 _rate, uint256 _maximumBuy) = organization.getTokenRate();\n        return (_rate, _maximumBuy);\n    }\n    \n    function buyTokens() public payable returns(address purchasedBy, uint256 amount) {\n        require(_allowSales, \"Sales is currently disabled. Contact administrator is this is a mistake\");\n        require(msg.value > 0, \"The tokens aren't free!\");\n        (uint256 tokenRate,) = showRate();\n        require(tokenRate > 0, \"Admin has not specified rate of tokens\");\n        require(msg.value >= tokenRate, \"You do not have enough to make a purchase, please check rate.\");\n        uint256 totalTokens = msg.value.mul(1 ether).div(tokenRate);\n        return organization.buyTokens(msg.sender, totalTokens);\n    }\n    \n}\n",
  "sourcePath": "C:\\Users\\abdulhafiz\\Documents\\Projects\\Github\\500ND4E\\ticketer\\contracts\\ControlPanel.sol",
  "compiler": {
    "name": "solc",
    "version": "0.6.10+commit.00c0fcaf.Emscripten.clang"
  },
  "schemaVersion": "3.2.2",
  "updatedAt": "2020-07-21T09:53:03.714Z",
  "devdoc": {
    "methods": {}
  },
  "userdoc": {
    "methods": {}
  }
}