{
  "contractName": "Organization",
  "abi": [
    {
      "inputs": [
        {
          "internalType": "uint256",
          "name": "initialSupply",
          "type": "uint256"
        },
        {
          "internalType": "string",
          "name": "name",
          "type": "string"
        },
        {
          "internalType": "string",
          "name": "symbol",
          "type": "string"
        },
        {
          "internalType": "bytes",
          "name": "organization_email",
          "type": "bytes"
        },
        {
          "internalType": "bytes",
          "name": "organization_name",
          "type": "bytes"
        },
        {
          "internalType": "bytes",
          "name": "creator_email",
          "type": "bytes"
        },
        {
          "internalType": "address",
          "name": "creator",
          "type": "address"
        }
      ],
      "stateMutability": "payable",
      "type": "constructor"
    },
    {
      "anonymous": false,
      "inputs": [
        {
          "indexed": true,
          "internalType": "address",
          "name": "owner",
          "type": "address"
        },
        {
          "indexed": true,
          "internalType": "address",
          "name": "spender",
          "type": "address"
        },
        {
          "indexed": false,
          "internalType": "uint256",
          "name": "value",
          "type": "uint256"
        }
      ],
      "name": "Approval",
      "type": "event"
    },
    {
      "anonymous": false,
      "inputs": [
        {
          "indexed": true,
          "internalType": "address",
          "name": "from",
          "type": "address"
        },
        {
          "indexed": true,
          "internalType": "address",
          "name": "to",
          "type": "address"
        },
        {
          "indexed": false,
          "internalType": "uint256",
          "name": "value",
          "type": "uint256"
        }
      ],
      "name": "Transfer",
      "type": "event"
    },
    {
      "stateMutability": "nonpayable",
      "type": "fallback"
    },
    {
      "inputs": [
        {
          "internalType": "address",
          "name": "account",
          "type": "address"
        }
      ],
      "name": "balanceOf",
      "outputs": [
        {
          "internalType": "uint256",
          "name": "",
          "type": "uint256"
        }
      ],
      "stateMutability": "view",
      "type": "function"
    },
    {
      "inputs": [
        {
          "internalType": "uint256",
          "name": "amount",
          "type": "uint256"
        }
      ],
      "name": "burn",
      "outputs": [],
      "stateMutability": "nonpayable",
      "type": "function"
    },
    {
      "inputs": [
        {
          "internalType": "address",
          "name": "account",
          "type": "address"
        },
        {
          "internalType": "uint256",
          "name": "amount",
          "type": "uint256"
        }
      ],
      "name": "burnFrom",
      "outputs": [],
      "stateMutability": "nonpayable",
      "type": "function"
    },
    {
      "inputs": [],
      "name": "decimals",
      "outputs": [
        {
          "internalType": "uint8",
          "name": "",
          "type": "uint8"
        }
      ],
      "stateMutability": "view",
      "type": "function"
    },
    {
      "inputs": [],
      "name": "name",
      "outputs": [
        {
          "internalType": "string",
          "name": "",
          "type": "string"
        }
      ],
      "stateMutability": "view",
      "type": "function"
    },
    {
      "inputs": [],
      "name": "symbol",
      "outputs": [
        {
          "internalType": "string",
          "name": "",
          "type": "string"
        }
      ],
      "stateMutability": "view",
      "type": "function"
    },
    {
      "inputs": [],
      "name": "totalSupply",
      "outputs": [
        {
          "internalType": "uint256",
          "name": "",
          "type": "uint256"
        }
      ],
      "stateMutability": "view",
      "type": "function"
    },
    {
      "inputs": [
        {
          "internalType": "address",
          "name": "sender",
          "type": "address"
        },
        {
          "internalType": "address",
          "name": "recipient",
          "type": "address"
        },
        {
          "internalType": "uint256",
          "name": "amount",
          "type": "uint256"
        }
      ],
      "name": "transferFrom",
      "outputs": [
        {
          "internalType": "bool",
          "name": "",
          "type": "bool"
        }
      ],
      "stateMutability": "nonpayable",
      "type": "function"
    },
    {
      "inputs": [
        {
          "internalType": "address",
          "name": "userAddress",
          "type": "address"
        }
      ],
      "name": "hasRole",
      "outputs": [
        {
          "internalType": "bool",
          "name": "",
          "type": "bool"
        }
      ],
      "stateMutability": "view",
      "type": "function"
    },
    {
      "inputs": [
        {
          "internalType": "address",
          "name": "_caller",
          "type": "address"
        }
      ],
      "name": "verifyOwnership",
      "outputs": [
        {
          "internalType": "bool",
          "name": "",
          "type": "bool"
        }
      ],
      "stateMutability": "nonpayable",
      "type": "function"
    },
    {
      "inputs": [
        {
          "internalType": "uint256",
          "name": "_newRate",
          "type": "uint256"
        },
        {
          "internalType": "address",
          "name": "_caller",
          "type": "address"
        }
      ],
      "name": "setRate",
      "outputs": [
        {
          "internalType": "uint256",
          "name": "",
          "type": "uint256"
        },
        {
          "internalType": "string",
          "name": "",
          "type": "string"
        }
      ],
      "stateMutability": "nonpayable",
      "type": "function"
    },
    {
      "inputs": [
        {
          "internalType": "uint256",
          "name": "_newMaximumBuy",
          "type": "uint256"
        },
        {
          "internalType": "address",
          "name": "_caller",
          "type": "address"
        }
      ],
      "name": "setMaximumBuy",
      "outputs": [
        {
          "internalType": "bool",
          "name": "",
          "type": "bool"
        },
        {
          "internalType": "uint256",
          "name": "",
          "type": "uint256"
        }
      ],
      "stateMutability": "nonpayable",
      "type": "function"
    },
    {
      "inputs": [],
      "name": "getTokenRate",
      "outputs": [
        {
          "internalType": "uint256",
          "name": "",
          "type": "uint256"
        },
        {
          "internalType": "uint256",
          "name": "",
          "type": "uint256"
        }
      ],
      "stateMutability": "view",
      "type": "function"
    },
    {
      "inputs": [],
      "name": "showOrganizationDetail",
      "outputs": [
        {
          "internalType": "uint256",
          "name": "",
          "type": "uint256"
        },
        {
          "internalType": "string",
          "name": "",
          "type": "string"
        },
        {
          "internalType": "address",
          "name": "",
          "type": "address"
        },
        {
          "internalType": "string",
          "name": "",
          "type": "string"
        }
      ],
      "stateMutability": "view",
      "type": "function"
    },
    {
      "inputs": [],
      "name": "total",
      "outputs": [
        {
          "internalType": "uint256",
          "name": "",
          "type": "uint256"
        }
      ],
      "stateMutability": "view",
      "type": "function"
    },
    {
      "inputs": [],
      "name": "adminCount",
      "outputs": [
        {
          "internalType": "uint256",
          "name": "",
          "type": "uint256"
        }
      ],
      "stateMutability": "view",
      "type": "function"
    },
    {
      "inputs": [
        {
          "internalType": "address",
          "name": "_newAdminAddress",
          "type": "address"
        },
        {
          "internalType": "string",
          "name": "_newAdminEmail",
          "type": "string"
        },
        {
          "internalType": "uint256",
          "name": "_newAdminSpendingLimit",
          "type": "uint256"
        },
        {
          "internalType": "address",
          "name": "_caller",
          "type": "address"
        }
      ],
      "name": "addAdmin",
      "outputs": [
        {
          "internalType": "string",
          "name": "",
          "type": "string"
        },
        {
          "internalType": "uint256",
          "name": "",
          "type": "uint256"
        }
      ],
      "stateMutability": "nonpayable",
      "type": "function"
    },
    {
      "inputs": [
        {
          "internalType": "bytes",
          "name": "_adminEmail",
          "type": "bytes"
        },
        {
          "internalType": "address",
          "name": "_caller",
          "type": "address"
        }
      ],
      "name": "removeAdmin",
      "outputs": [
        {
          "internalType": "address",
          "name": "",
          "type": "address"
        }
      ],
      "stateMutability": "nonpayable",
      "type": "function"
    },
    {
      "inputs": [
        {
          "internalType": "bytes",
          "name": "_adminEmail",
          "type": "bytes"
        }
      ],
      "name": "showAdminDetail",
      "outputs": [
        {
          "internalType": "address",
          "name": "",
          "type": "address"
        },
        {
          "internalType": "string",
          "name": "",
          "type": "string"
        },
        {
          "internalType": "uint256",
          "name": "",
          "type": "uint256"
        }
      ],
      "stateMutability": "view",
      "type": "function"
    },
    {
      "inputs": [
        {
          "internalType": "bytes",
          "name": "_adminEmail",
          "type": "bytes"
        }
      ],
      "name": "getAdminBalance",
      "outputs": [
        {
          "internalType": "address",
          "name": "",
          "type": "address"
        },
        {
          "internalType": "uint256",
          "name": "",
          "type": "uint256"
        }
      ],
      "stateMutability": "view",
      "type": "function"
    },
    {
      "inputs": [
        {
          "internalType": "address",
          "name": "_userAddress",
          "type": "address"
        }
      ],
      "name": "getAddressBalance",
      "outputs": [
        {
          "internalType": "address",
          "name": "",
          "type": "address"
        },
        {
          "internalType": "uint256",
          "name": "",
          "type": "uint256"
        }
      ],
      "stateMutability": "view",
      "type": "function"
    },
    {
      "inputs": [],
      "name": "myAllowance",
      "outputs": [
        {
          "internalType": "uint256",
          "name": "",
          "type": "uint256"
        }
      ],
      "stateMutability": "view",
      "type": "function"
    },
    {
      "inputs": [
        {
          "internalType": "bytes",
          "name": "_adminEmail",
          "type": "bytes"
        },
        {
          "internalType": "uint256",
          "name": "_amount",
          "type": "uint256"
        }
      ],
      "name": "increaseSpendingAllowance",
      "outputs": [
        {
          "internalType": "bool",
          "name": "success",
          "type": "bool"
        }
      ],
      "stateMutability": "nonpayable",
      "type": "function"
    },
    {
      "inputs": [
        {
          "internalType": "bytes",
          "name": "_adminEmail",
          "type": "bytes"
        },
        {
          "internalType": "uint256",
          "name": "_amount",
          "type": "uint256"
        }
      ],
      "name": "decreaseSpendingAllowance",
      "outputs": [
        {
          "internalType": "bool",
          "name": "success",
          "type": "bool"
        }
      ],
      "stateMutability": "nonpayable",
      "type": "function"
    },
    {
      "inputs": [
        {
          "internalType": "address",
          "name": "buyer",
          "type": "address"
        },
        {
          "internalType": "uint256",
          "name": "amount",
          "type": "uint256"
        }
      ],
      "name": "buyTokens",
      "outputs": [
        {
          "internalType": "address",
          "name": "",
          "type": "address"
        },
        {
          "internalType": "uint256",
          "name": "",
          "type": "uint256"
        }
      ],
      "stateMutability": "nonpayable",
      "type": "function"
    },
    {
      "inputs": [
        {
          "internalType": "uint256",
          "name": "_amount",
          "type": "uint256"
        },
        {
          "internalType": "address",
          "name": "_caller",
          "type": "address"
        }
      ],
      "name": "burnTokens",
      "outputs": [
        {
          "internalType": "bool",
          "name": "success",
          "type": "bool"
        }
      ],
      "stateMutability": "nonpayable",
      "type": "function"
    },
    {
      "inputs": [
        {
          "internalType": "address",
          "name": "_account",
          "type": "address"
        },
        {
          "internalType": "uint256",
          "name": "_amount",
          "type": "uint256"
        },
        {
          "internalType": "address",
          "name": "_caller",
          "type": "address"
        }
      ],
      "name": "burnTokensIn",
      "outputs": [
        {
          "internalType": "bool",
          "name": "success",
          "type": "bool"
        }
      ],
      "stateMutability": "nonpayable",
      "type": "function"
    },
    {
      "inputs": [],
      "name": "showOwnerDetails",
      "outputs": [
        {
          "internalType": "address",
          "name": "ownerAddress",
          "type": "address"
        },
        {
          "internalType": "string",
          "name": "ownerEmail",
          "type": "string"
        }
      ],
      "stateMutability": "view",
      "type": "function"
    },
    {
      "inputs": [],
      "name": "_tokenSymbol",
      "outputs": [
        {
          "internalType": "string",
          "name": "",
          "type": "string"
        }
      ],
      "stateMutability": "view",
      "type": "function"
    },
    {
      "inputs": [
        {
          "internalType": "address",
          "name": "recipient",
          "type": "address"
        },
        {
          "internalType": "uint256",
          "name": "amount",
          "type": "uint256"
        }
      ],
      "name": "transfer",
      "outputs": [
        {
          "internalType": "bool",
          "name": "",
          "type": "bool"
        }
      ],
      "stateMutability": "nonpayable",
      "type": "function"
    },
    {
      "inputs": [
        {
          "internalType": "address",
          "name": "owner",
          "type": "address"
        },
        {
          "internalType": "address",
          "name": "spender",
          "type": "address"
        }
      ],
      "name": "allowance",
      "outputs": [
        {
          "internalType": "uint256",
          "name": "",
          "type": "uint256"
        }
      ],
      "stateMutability": "view",
      "type": "function"
    },
    {
      "inputs": [
        {
          "internalType": "address",
          "name": "spender",
          "type": "address"
        },
        {
          "internalType": "uint256",
          "name": "amount",
          "type": "uint256"
        }
      ],
      "name": "approve",
      "outputs": [
        {
          "internalType": "bool",
          "name": "",
          "type": "bool"
        }
      ],
      "stateMutability": "nonpayable",
      "type": "function"
    },
    {
      "inputs": [
        {
          "internalType": "address",
          "name": "spender",
          "type": "address"
        },
        {
          "internalType": "uint256",
          "name": "addedValue",
          "type": "uint256"
        }
      ],
      "name": "increaseAllowance",
      "outputs": [
        {
          "internalType": "bool",
          "name": "",
          "type": "bool"
        }
      ],
      "stateMutability": "nonpayable",
      "type": "function"
    },
    {
      "inputs": [
        {
          "internalType": "address",
          "name": "spender",
          "type": "address"
        },
        {
          "internalType": "uint256",
          "name": "subtractedValue",
          "type": "uint256"
        }
      ],
      "name": "decreaseAllowance",
      "outputs": [
        {
          "internalType": "bool",
          "name": "",
          "type": "bool"
        }
      ],
      "stateMutability": "nonpayable",
      "type": "function"
    }
  ],
  "bytecode": "0x60806040526000600c5560405162002ef838038062002ef8833981810160405260e08110156200002e57600080fd5b8151602083018051604051929492938301929190846401000000008211156200005657600080fd5b9083019060208201858111156200006c57600080fd5b82516401000000008111828201881017156200008757600080fd5b82525081516020918201929091019080838360005b83811015620000b65781810151838201526020016200009c565b50505050905090810190601f168015620000e45780820380516001836020036101000a031916815260200191505b50604052602001805160405193929190846401000000008211156200010857600080fd5b9083019060208201858111156200011e57600080fd5b82516401000000008111828201881017156200013957600080fd5b82525081516020918201929091019080838360005b83811015620001685781810151838201526020016200014e565b50505050905090810190601f168015620001965780820380516001836020036101000a031916815260200191505b5060405260200180516040519392919084640100000000821115620001ba57600080fd5b908301906020820185811115620001d057600080fd5b8251640100000000811182820188101715620001eb57600080fd5b82525081516020918201929091019080838360005b838110156200021a57818101518382015260200162000200565b50505050905090810190601f168015620002485780820380516001836020036101000a031916815260200191505b50604052602001805160405193929190846401000000008211156200026c57600080fd5b9083019060208201858111156200028257600080fd5b82516401000000008111828201881017156200029d57600080fd5b82525081516020918201929091019080838360005b83811015620002cc578181015183820152602001620002b2565b50505050905090810190601f168015620002fa5780820380516001836020036101000a031916815260200191505b50604052602001805160405193929190846401000000008211156200031e57600080fd5b9083019060208201858111156200033457600080fd5b82516401000000008111828201881017156200034f57600080fd5b82525081516020918201929091019080838360005b838110156200037e57818101518382015260200162000364565b50505050905090810190601f168015620003ac5780820380516001836020036101000a031916815260200191505b5060405260209081015188519093508892508791620003d1916003918501906200076d565b508051620003e79060049060208401906200076d565b505060058054601260ff1990911617905550620004128760036200066e602090811b62001ad017901c565b600d55600a80546001600160a01b0319166001600160a01b038316179055600f87905581516200044a90600b9060208501906200076d565b5030600090815260116020908152604090912084516200046d928601906200076d565b50306000908152601160209081526040909120855162000496926001909201918701906200076d565b50306000818152601160209081526040918290206002810180546001600160a01b03199081169095179055600a54600390910180549094166001600160a01b0391909116179092555183518492601292849290918291908401908083835b60208310620005155780518252601f199092019160209182019101620004f4565b51815160209384036101000a600019018019909216911617905292019485525060405193849003810190932084516200055895919491909101925090506200076d565b50600a5460405183516001600160a01b03909216916012918591819060208401908083835b602083106200059e5780518252601f1990920191602091820191016200057d565b51815160209384036101000a6000190180199092169116179052920194855250604051938490030190922060010180546001600160a01b0319166001600160a01b03949094169390931790925550620005f89050620006bf565b6012836040518082805190602001908083835b602083106200062c5780518252601f1990920191602091820191016200060b565b51815160209384036101000a6000190180199092169116179052920194855250604051938490030190922060020192909255506200080f975050505050505050565b6000620006b883836040518060400160405280601a81526020017f536166654d6174683a206469766973696f6e206279207a65726f000000000000815250620006c660201b60201c565b9392505050565b6002545b90565b60008183620007565760405162461bcd60e51b81526004018080602001828103825283818151815260200191508051906020019080838360005b838110156200071a57818101518382015260200162000700565b50505050905090810190601f168015620007485780820380516001836020036101000a031916815260200191505b509250505060405180910390fd5b5060008385816200076357fe5b0495945050505050565b828054600181600116156101000203166002900490600052602060002090601f016020900481019282601f10620007b057805160ff1916838001178555620007e0565b82800160010185558215620007e0579182015b82811115620007e0578251825591602001919060010190620007c3565b50620007ee929150620007f2565b5090565b620006c391905b80821115620007ee5760008155600101620007f9565b6126d9806200081f6000396000f3fe608060405234801561001057600080fd5b50600436106102065760003560e01c806369376af81161011a5780639730b305116100ad578063b068c1681161007c578063b068c1681461099b578063dd62ed3e14610a97578063ecf35cca14610ac5578063f6244c8f14610acd578063fbd1427c14610b6057610206565b80639730b305146108a95780639efb3d4d146108d5578063a457c2d714610943578063a9059cbb1461096f57610206565b806379cc6790116100e957806379cc6790146107e15780637ef09bca1461080d57806391d930771461083357806395d89b41146108a157610206565b806369376af8146106fe57806370a082311461070657806373a1e5481461072c57806373ef0ba51461079a57610206565b80632cc9c1511161019d578063395093511161016c578063395093511461051a5780633e2d70041461054657806342966c68146105675780635687cd13146105845780635e5fb5f3146105f257610206565b80632cc9c151146104a85780632ddbd13a146104ce578063313ce567146104d657806335046722146104f457610206565b8063158a2ae0116101d9578063158a2ae01461034a57806318160ddd1461045057806323b872dd1461046a5780632b7832b3146104a057610206565b806306fdde03146102085780630752881a14610285578063095ea7b3146102d45780630f963a1c14610314575b005b610210610bb1565b6040805160208082528351818301528351919283929083019185019080838360005b8381101561024a578181015183820152602001610232565b50505050905090810190601f1680156102775780820380516001836020036101000a031916815260200191505b509250505060405180910390f35b6102b16004803603604081101561029b57600080fd5b506001600160a01b038135169060200135610c48565b604080516001600160a01b03909316835260208301919091528051918290030190f35b610300600480360360408110156102ea57600080fd5b506001600160a01b038135169060200135610c77565b604080519115158252519081900360200190f35b6103006004803603606081101561032a57600080fd5b506001600160a01b03813581169160208101359160409091013516610c95565b610352610d09565b6040518085815260200180602001846001600160a01b03166001600160a01b0316815260200180602001838103835286818151815260200191508051906020019080838360005b838110156103b1578181015183820152602001610399565b50505050905090810190601f1680156103de5780820380516001836020036101000a031916815260200191505b50838103825284518152845160209182019186019080838360005b838110156104115781810151838201526020016103f9565b50505050905090810190601f16801561043e5780820380516001836020036101000a031916815260200191505b50965050505050505060405180910390f35b610458610e2f565b60408051918252519081900360200190f35b6103006004803603606081101561048057600080fd5b506001600160a01b03813581169160208101359091169060400135610e35565b610458610ec2565b610300600480360360208110156104be57600080fd5b50356001600160a01b0316610ed3565b610458610fd8565b6104de610fe2565b6040805160ff9092168252519081900360200190f35b6102b16004803603602081101561050a57600080fd5b50356001600160a01b0316610feb565b6103006004803603604081101561053057600080fd5b506001600160a01b038135169060200135611001565b61054e611055565b6040805192835260208301919091528051918290030190f35b6102066004803603602081101561057d57600080fd5b50356110a5565b6102b16004803603602081101561059a57600080fd5b810190602081018135600160201b8111156105b457600080fd5b8201836020820111156105c657600080fd5b803590602001918460018302840111600160201b831117156105e757600080fd5b5090925090506110b9565b61067f6004803603608081101561060857600080fd5b6001600160a01b038235169190810190604081016020820135600160201b81111561063257600080fd5b82018360208201111561064457600080fd5b803590602001918460018302840111600160201b8311171561066557600080fd5b9193509150803590602001356001600160a01b031661115e565b6040518080602001838152602001828103825284818151815260200191508051906020019080838360005b838110156106c25781810151838201526020016106aa565b50505050905090810190601f1680156106ef5780820380516001836020036101000a031916815260200191505b50935050505060405180910390f35b6104586112e2565b6104586004803603602081101561071c57600080fd5b50356001600160a01b03166112fb565b6103006004803603604081101561074257600080fd5b810190602081018135600160201b81111561075c57600080fd5b82018360208201111561076e57600080fd5b803590602001918460018302840111600160201b8311171561078f57600080fd5b919350915035611316565b6107c6600480360360408110156107b057600080fd5b50803590602001356001600160a01b03166113d7565b60408051921515835260208301919091528051918290030190f35b610206600480360360408110156107f757600080fd5b506001600160a01b038135169060200135611462565b6103006004803603602081101561082357600080fd5b50356001600160a01b03166114c2565b61085f6004803603604081101561084957600080fd5b50803590602001356001600160a01b03166114d5565b604051808381526020018060200182810382528381815181526020019150805190602001908083836000838110156106c25781810151838201526020016106aa565b610210611581565b610300600480360360408110156108bf57600080fd5b50803590602001356001600160a01b03166115e2565b610300600480360360408110156108eb57600080fd5b810190602081018135600160201b81111561090557600080fd5b82018360208201111561091757600080fd5b803590602001918460018302840111600160201b8311171561093857600080fd5b91935091503561164b565b6103006004803603604081101561095957600080fd5b506001600160a01b0381351690602001356116c0565b6103006004803603604081101561098557600080fd5b506001600160a01b03813516906020013561172e565b610a09600480360360208110156109b157600080fd5b810190602081018135600160201b8111156109cb57600080fd5b8201836020820111156109dd57600080fd5b803590602001918460018302840111600160201b831117156109fe57600080fd5b509092509050611742565b604080516001600160a01b0385168152908101829052606060208083018281528551928401929092528451608084019186019080838360005b83811015610a5a578181015183820152602001610a42565b50505050905090810190601f168015610a875780820380516001836020036101000a031916815260200191505b5094505050505060405180910390f35b61045860048036036040811015610aad57600080fd5b506001600160a01b0381358116916020013516611847565b610210611872565b610b4460048036036040811015610ae357600080fd5b810190602081018135600160201b811115610afd57600080fd5b820183602082011115610b0f57600080fd5b803590602001918460018302840111600160201b83111715610b3057600080fd5b9193509150356001600160a01b031661187c565b604080516001600160a01b039092168252519081900360200190f35b610b6861193b565b604080516001600160a01b0384168152602080820183815284519383019390935283519192916060840191850190808383600083156106c25781810151838201526020016106aa565b60038054604080516020601f6002600019610100600188161502019095169490940493840181900481028201810190925282815260609390929091830182828015610c3d5780601f10610c1257610100808354040283529160200191610c3d565b820191906000526020600020905b815481529060010190602001808311610c2057829003601f168201915b505050505090505b90565b600e5460009081906001600160a01b03163314610c6457600080fd5b610c6e848461172e565b50929391925050565b6000610c8b610c84611b19565b8484611b1d565b5060015b92915050565b600e546000906001600160a01b03163314610caf57600080fd5b81610cb9816114c2565b610cf45760405162461bcd60e51b815260040180806020018281038252602981526020018061247c6029913960400191505060405180910390fd5b610cfe8585611462565b506001949350505050565b6000606060006060610d19610e2f565b6012600b6040518082805460018160011615610100020316600290048015610d785780601f10610d56576101008083540402835291820191610d78565b820191906000526020600020905b815481529060010190602001808311610d64575b5050928352505060405190819003602001902030610d94611581565b8254604080516020601f60026000196101006001881615020190951694909404938401819004810282018101909252828152918591830182828015610e1a5780601f10610def57610100808354040283529160200191610e1a565b820191906000526020600020905b815481529060010190602001808311610dfd57829003601f168201915b50505050509250935093509350935090919293565b60025490565b6000610e42848484611c09565b610eb884610e4e611b19565b610eb385604051806060016040528060288152602001612595602891396001600160a01b038a16600090815260016020526040812090610e8c611b19565b6001600160a01b03168152602081019190915260400160002054919063ffffffff611d7216565b611b1d565b5060019392505050565b6000610ece6008611e09565b905090565b600a546000906001600160a01b03838116911614610f225760405162461bcd60e51b81526004018080602001828103825260228152602001806124c76022913960400191505060405180910390fd5b60105460ff1615610f645760405162461bcd60e51b815260040180806020018281038252606581526020018061250f6065913960800191505060405180910390fd5b60108054600160ff19909116179055600a80546001600160a01b03199081166001600160a01b03851617909155600e805433921682179055610fa890600890611e14565b50610fba60088363ffffffff611e1416565b50610fc733600f54611e29565b610c8b82610fd3610e2f565b610c77565b6000610ece610e2f565b60055460ff1690565b60008082610ff8846112fb565b91509150915091565b6000610c8b61100e611b19565b84610eb3856007600061101f611b19565b6001600160a01b03908116825260208083019390935260409182016000908120918c16815292529020549063ffffffff611f2516565b6000806000600c54116110995760405162461bcd60e51b81526004018080602001828103825260348152602001806125e16034913960400191505060405180910390fd5b5050600c54600d549091565b6110b66110b0611b19565b82611f7f565b50565b6000806000601285856040518083838082843791909101948552505060405192839003602001909220600101546001600160a01b031692506110fe91508290506114c2565b611146576040805162461bcd60e51b8152602060048201526014602482015273139bdd08185b8818591b5a5b881858d8dbdd5b9d60621b604482015290519081900360640190fd5b6000611151826112fb565b9196919550909350505050565b600e546060906000906001600160a01b0316331461117b57600080fd5b600a5483906001600160a01b038083169116146111dc576040805162461bcd60e51b815260206004820152601a6024820152794f6e6c7920746865206f776e65722063616e20646f207468697360301b604482015290519081900360640190fd5b6111ed60088963ffffffff61208716565b156111f757600080fd5b868660128989604051808383808284379190910194855250506040519283900360200190922061122d949093909250905061239e565b508760128888604051808383808284379190910194855250506040519283900360200190922060010180546001600160a01b03949094166001600160a01b0319909416939093179092555061128b905060088963ffffffff611e1416565b506112968886610c77565b5086868682828080601f016020809104026020016040519081016040528093929190818152602001838380828437600092019190915250929e939d50929b505050505050505050505050565b600a54600090610ece906001600160a01b031633611847565b6001600160a01b031660009081526020819052604090205490565b600e546000906001600160a01b0316331461133057600080fd5b600061137185858080601f01602080910402602001604051908101604052809392919081815260200183838082843760009201919091525061209c92505050565b905061137c816114c2565b6113c1576040805162461bcd60e51b81526020600482015260116024820152702737ba1030903b30b634b21030b236b4b760791b604482015290519081900360640190fd5b6113cb8184611001565b50600195945050505050565b600e5460009081906001600160a01b031633146113f357600080fd5b600a5483906001600160a01b03808316911614611454576040805162461bcd60e51b815260206004820152601a6024820152794f6e6c7920746865206f776e65722063616e20646f207468697360301b604482015290519081900360640190fd5b505050600d82905550600191565b600061149f826040518060600160405280602481526020016125bd602491396114928661148d611b19565b611847565b919063ffffffff611d7216565b90506114b3836114ad611b19565b83611b1d565b6114bd8383611f7f565b505050565b6000610c8f60088363ffffffff61208716565b600e546000906060906001600160a01b031633146114f257600080fd5b600a5483906001600160a01b03808316911614611553576040805162461bcd60e51b815260206004820152601a6024820152794f6e6c7920746865206f776e65722063616e20646f207468697360301b604482015290519081900360640190fd5b611568856402540be40063ffffffff61215d16565b600c819055611575611581565b92509250509250929050565b60048054604080516020601f6002600019610100600188161502019095169490940493840181900481028201810190925282815260609390929091830182828015610c3d5780601f10610c1257610100808354040283529160200191610c3d565b600e546000906001600160a01b031633146115fc57600080fd5b81611606816114c2565b6116415760405162461bcd60e51b815260040180806020018281038252602981526020018061247c6029913960400191505060405180910390fd5b610eb88385611f7f565b600e546000906001600160a01b0316331461166557600080fd5b60006116a685858080601f01602080910402602001604051908101604052809392919081815260200183838082843760009201919091525061209c92505050565b90506116b1816114c2565b6116ba57600080fd5b6113cb81845b6000610c8b6116cd611b19565b84610eb38560405180606001604052806025815260200161267f60259139600760006116f7611b19565b6001600160a01b03908116825260208083019390935260409182016000908120918d1681529252902054919063ffffffff611d7216565b6000610c8b61173b611b19565b8484611c09565b60006060600080601286866040518083838082843791909101948552505060405192839003602001909220600101546001600160a01b0316925061178991508290506114c2565b6117ce576040805162461bcd60e51b81526020600482015260116024820152702737ba1030903b30b634b21030b236b4b760791b604482015290519081900360640190fd5b606086868080601f016020809104026020016040519081016040528093929190818152602001838380828437600092018290525060405194955093601293508b92508a91508083838082843791909101948552505060405192839003602001909220600201549497509295509293505050509250925092565b6001600160a01b03918216600090815260076020908152604080832093909416825291909152205490565b6060610ece611581565b600e546000906001600160a01b0316331461189657600080fd5b816118a0816114c2565b6118db5760405162461bcd60e51b815260040180806020018281038252602981526020018061247c6029913960400191505060405180910390fd5b6000601286866040518083838082843791909101948552505060405192839003602001909220600101546001600160a01b031692506119259150600890508263ffffffff6121b616565b50611931816000610c77565b5095945050505050565b6000606060006012600b60405180828054600181600116156101000203166002900480156119a05780601f1061197e5761010080835404028352918201916119a0565b820191906000526020600020905b81548152906001019060200180831161198c575b5050915050908152602001604051809103902060010160009054906101000a90046001600160a01b0316905060606012600b6040518082805460018160011615610100020316600290048015611a2d5780601f10611a0b576101008083540402835291820191611a2d565b820191906000526020600020905b815481529060010190602001808311611a19575b505092835250506040805160209281900383018120805460026001821615610100026000190190911604601f81018590048502830185019093528282529092909190830182828015611ac05780601f10611a9557610100808354040283529160200191611ac0565b820191906000526020600020905b815481529060010190602001808311611aa357829003601f168201915b5095975092955050505050509091565b6000611b1283836040518060400160405280601a81526020017f536166654d6174683a206469766973696f6e206279207a65726f0000000000008152506121cb565b9392505050565b3390565b6001600160a01b038316611b625760405162461bcd60e51b815260040180806020018281038252602481526020018061265b6024913960400191505060405180910390fd5b6001600160a01b038216611ba75760405162461bcd60e51b81526004018080602001828103825260228152602001806124a56022913960400191505060405180910390fd5b6001600160a01b03808416600081815260076020908152604080832094871680845294825291829020859055815185815291517f8c5be1e5ebec7d5bd14f71427d1e84f3dd0314c0f7b2291e5b200ac8c7c3b9259281900390910190a3505050565b6001600160a01b038316611c4e5760405162461bcd60e51b81526004018080602001828103825260258152602001806126366025913960400191505060405180910390fd5b6001600160a01b038216611c935760405162461bcd60e51b81526004018080602001828103825260238152602001806124376023913960400191505060405180910390fd5b611c9e8383836114bd565b611ce1816040518060600160405280602681526020016124e9602691396001600160a01b038616600090815260066020526040902054919063ffffffff611d7216565b6001600160a01b038085166000908152600660205260408082209390935590841681522054611d16908263ffffffff611f2516565b6001600160a01b0380841660008181526006602090815260409182902094909455805185815290519193928716927fddf252ad1be2c89b69c2b068fc378daa952ba7f163c4a11628f55a4df523b3ef92918290030190a3505050565b60008184841115611e015760405162461bcd60e51b81526004018080602001828103825283818151815260200191508051906020019080838360005b83811015611dc6578181015183820152602001611dae565b50505050905090810190601f168015611df35780820380516001836020036101000a031916815260200191505b509250505060405180910390fd5b505050900390565b6000610c8f82612230565b6000611b12836001600160a01b038416612234565b6001600160a01b038216611e84576040805162461bcd60e51b815260206004820152601f60248201527f45524332303a206d696e7420746f20746865207a65726f206164647265737300604482015290519081900360640190fd5b611e90600083836114bd565b600254611ea3908263ffffffff611f2516565b6002556001600160a01b038216600090815260208190526040902054611ecf908263ffffffff611f2516565b6001600160a01b0383166000818152602081815260408083209490945583518581529351929391927fddf252ad1be2c89b69c2b068fc378daa952ba7f163c4a11628f55a4df523b3ef9281900390910190a35050565b600082820183811015611b12576040805162461bcd60e51b815260206004820152601b60248201527f536166654d6174683a206164646974696f6e206f766572666c6f770000000000604482015290519081900360640190fd5b6001600160a01b038216611fc45760405162461bcd60e51b81526004018080602001828103825260218152602001806126156021913960400191505060405180910390fd5b611fd0826000836114bd565b6120138160405180606001604052806022815260200161245a602291396001600160a01b038516600090815260208190526040902054919063ffffffff611d7216565b6001600160a01b03831660009081526020819052604090205560025461203f908263ffffffff61227e16565b6002556040805182815290516000916001600160a01b038516917fddf252ad1be2c89b69c2b068fc378daa952ba7f163c4a11628f55a4df523b3ef9181900360200190a35050565b6000611b12836001600160a01b0384166122c0565b6000806012836040518082805190602001908083835b602083106120d15780518252601f1990920191602091820191016120b2565b51815160209384036101000a60001901801990921691161790529201948552506040519384900301909220600101546001600160a01b0316925061211891508290506114c2565b610c8f576040805162461bcd60e51b81526020600482015260116024820152702737ba1030903b30b634b21020b236b4b760791b604482015290519081900360640190fd5b60008261216c57506000610c8f565b8282028284828161217957fe5b0414611b125760405162461bcd60e51b81526004018080602001828103825260218152602001806125746021913960400191505060405180910390fd5b6000611b12836001600160a01b0384166122d8565b6000818361221a5760405162461bcd60e51b8152602060048201818152835160248401528351909283926044909101919085019080838360008315611dc6578181015183820152602001611dae565b50600083858161222657fe5b0495945050505050565b5490565b600061224083836122c0565b61227657508154600181810184556000848152602080822090930184905584548482528286019093526040902091909155610c8f565b506000610c8f565b6000611b1283836040518060400160405280601e81526020017f536166654d6174683a207375627472616374696f6e206f766572666c6f770000815250611d72565b60009081526001919091016020526040902054151590565b60008181526001830160205260408120548015612394578354600019808301919081019060009087908390811061230b57fe5b906000526020600020015490508087600001848154811061232857fe5b60009182526020808320909101929092558281526001898101909252604090209084019055865487908061235857fe5b60019003818190600052602060002001600090559055866001016000878152602001908152602001600020600090556001945050505050610c8f565b6000915050610c8f565b828054600181600116156101000203166002900490600052602060002090601f016020900481019282601f106123df5782800160ff1982351617855561240c565b8280016001018555821561240c579182015b8281111561240c5782358255916020019190600101906123f1565b5061241892915061241c565b5090565b610c4591905b80821115612418576000815560010161242256fe45524332303a207472616e7366657220746f20746865207a65726f206164647265737345524332303a206275726e20616d6f756e7420657863656564732062616c616e6365596f7520617265206e6f7420616e2061646d696e206f662074686973206f7267616e697a6174696f6e45524332303a20617070726f766520746f20746865207a65726f2061646472657373596f752063616e6e6f7420636c61696d2077686174206973206e6f7420796f75727345524332303a207472616e7366657220616d6f756e7420657863656564732062616c616e636554686973206163636f756e742068617320616c7265616479206265656e2076657269666965642c20706c6561736520676f20746f2074686520636f6e74726f6c2070616e656c20746f20696e7465727261637420776974682074686520636f6e7472616374536166654d6174683a206d756c7469706c69636174696f6e206f766572666c6f7745524332303a207472616e7366657220616d6f756e74206578636565647320616c6c6f77616e636545524332303a206275726e20616d6f756e74206578636565647320616c6c6f77616e636541646d696e2069732079657420746f2073657420746865207261746520666f72207468697320746f6b656e732f7469636b65747345524332303a206275726e2066726f6d20746865207a65726f206164647265737345524332303a207472616e736665722066726f6d20746865207a65726f206164647265737345524332303a20617070726f76652066726f6d20746865207a65726f206164647265737345524332303a2064656372656173656420616c6c6f77616e63652062656c6f77207a65726fa2646970667358221220a718c1eb890975a036c8323b9a651d3f7ff89fcc31a83ee096007fd03879e55b64736f6c634300060a0033",
  "immutableReferences": {},
  "source": "//SPDX-License-Identifier: MIT\npragma solidity >= 0.5.0 < 0.7.0;\n\nimport '../node_modules/@openzeppelin/contracts/math/SafeMath.sol';\nimport '../node_modules/@openzeppelin/contracts/token/ERC20/ERC20.sol';\nimport '../node_modules/@openzeppelin/contracts/token/ERC20/ERC20Burnable.sol';\nimport '../node_modules/@openzeppelin/contracts/utils/EnumerableSet.sol';\nimport '../node_modules/@openzeppelin/contracts/utils/Strings.sol';\n\ncontract Organization is ERC20, ERC20Burnable {\n    \n    mapping (address => uint256) private _balances;\n\n    mapping (address => mapping (address => uint256)) private _allowances;\n    \n    using EnumerableSet for EnumerableSet.AddressSet;\n    using Address for address;\n    \n    EnumerableSet.AddressSet private _admins;\n\n    bytes32 constant private ADMIN = keccak256('admin');\n    address private _owner;\n    bytes private OWNER_EMAIL;\n    uint256 private _tokenRate = 0 ether;\n    uint256 private _maximumBuy;\n    address private _controlPanel;\n    uint256 private _initialSupply;\n    bool private _verified;\n    \n    struct Admin {\n        bytes email;\n        address walletAddress;\n        uint256 spendingLimit;\n        EnumerableSet.AddressSet members;\n    }\n\n    struct _Organization {\n        bytes _organizationName;\n        bytes _organizationEmail;\n        address _organizationAddress;\n        address _owner;\n        mapping(address => Admin) _admins;\n        mapping(bytes => Admin) _readableAdmins;\n    }\n    \n    mapping(address => _Organization) organizationStruct;\n    mapping(bytes => Admin) internal adminStruct;\n\n    constructor(\n      uint256 initialSupply,\n      string memory name,\n      string memory symbol,\n      bytes memory organization_email,\n      bytes memory organization_name,\n      bytes memory creator_email,\n    //   address _ticketer,\n      address creator\n     ) public payable ERC20(name, symbol) \n    {\n    // require(_ticketer == 0x018Fa7a4ff90437957F1b2184743f10774B1a433, 'We are trying to run a business, please do it from Ticketer main app, thank you');\n    _maximumBuy = initialSupply.div(3); // You can only buy a third of the total tokens, subject to change\n    _owner = creator; // hand over ownership to the creator of the contract\n    _initialSupply = initialSupply;\n    \n    // Define the organization\n    OWNER_EMAIL = creator_email;\n    organizationStruct[address(this)]._organizationName = organization_name;\n    organizationStruct[address(this)]._organizationEmail = organization_email;\n    organizationStruct[address(this)]._organizationAddress = address(this);\n    organizationStruct[address(this)]._owner = _owner;\n    \n    \n    // Define Owner's Admin struct\n    adminStruct[creator_email].email = creator_email;\n    adminStruct[creator_email].walletAddress = _owner;\n    adminStruct[creator_email].spendingLimit = totalSupply();\n    // _mint(creator, initialSupply);\n  }\n  \n  // Admin Logic - STARTS\n  \n  function hasRole(address userAddress) public view returns(bool) {\n      return _admins.contains(userAddress);\n  }\n   \n  modifier isOwner(address _caller) {\n     \n      require(_caller == _owner, 'Only the owner can do this');\n      _;\n   }\n   \n   modifier callerIsAdmin(address _caller) {\n      require(hasRole(_caller), 'You are not an admin of this organization');\n      _;\n   }\n   \n   modifier isControlPanel() {\n       require(msg.sender == _controlPanel); // Only ticketer can make the calls\n       _;\n   }\n   \n   function verifyOwnership(address _caller) external returns(bool) {\n        require(_caller == _owner, 'You cannot claim what is not yours');\n        require(!_verified, 'This account has already been verified, please go to the control panel to interract with the contract');\n        _verified = true;\n        _owner = _caller;\n        _controlPanel = msg.sender;\n        _admins.add(msg.sender);\n        _admins.add(_caller);\n        _mint(msg.sender, _initialSupply);\n        approve(_caller, totalSupply());\n        return true;\n   }\n   \n   function setRate(uint256 _newRate, address _caller) external isControlPanel isOwner(_caller) returns(uint256, string memory) {\n       _tokenRate = _newRate.mul(0.00000001 ether);\n       return (_tokenRate, symbol());\n    }\n   \n   function setMaximumBuy(uint256 _newMaximumBuy, address _caller) external isControlPanel isOwner(_caller) returns(bool, uint256) {\n       _maximumBuy = _newMaximumBuy;\n       return (true, _maximumBuy);\n   }\n\n   \n   function getTokenRate() external view returns(uint256, uint256){\n      require(_tokenRate > 0, 'Admin is yet to set the rate for this tokens/tickets');\n      return (_tokenRate, _maximumBuy);\n   }\n   \n   function showOrganizationDetail() external view returns(uint256, string memory, address, string memory) {\n      return (totalSupply(), string(adminStruct[OWNER_EMAIL].email), address(this), symbol());\n  }\n  \n  function total()public view returns(uint){\n      return totalSupply();\n  }\n  \n  function adminCount() external view returns(uint256) {\n      return _admins.length();\n  }\n   \n  function addAdmin(\n    address _newAdminAddress,\n    string calldata _newAdminEmail,\n    uint256 _newAdminSpendingLimit,\n    address _caller\n    ) isControlPanel isOwner(_caller) external returns(string memory, uint256)\n  {\n      require(!_admins.contains(_newAdminAddress));\n      adminStruct[bytes(_newAdminEmail)].email = bytes(_newAdminEmail);\n      adminStruct[bytes(_newAdminEmail)].walletAddress = _newAdminAddress;\n      _admins.add(_newAdminAddress);\n      approve(_newAdminAddress, _newAdminSpendingLimit);\n      return (_newAdminEmail, _newAdminSpendingLimit);\n  }\n  \n  function removeAdmin(bytes calldata _adminEmail, address _caller) isControlPanel callerIsAdmin(_caller) external returns (address){\n      address adminAddress = adminStruct[_adminEmail].walletAddress;\n      _admins.remove(adminAddress);\n      approve(adminAddress, 0);\n      return adminAddress;\n  }\n  \n  function showAdminDetail(bytes calldata _adminEmail) view external returns(address, string memory, uint256) {\n      address _walletAddress = adminStruct[_adminEmail].walletAddress;\n      require(hasRole(_walletAddress), 'Not a valid admin');\n      string memory _email = string(_adminEmail);\n      uint256 _spendingLimit = adminStruct[_adminEmail].spendingLimit;\n      return (_walletAddress, _email, _spendingLimit);\n  }\n  \n  function getAdminBalance(bytes calldata _adminEmail) external view returns(address, uint256){\n      address _userAddress = adminStruct[_adminEmail].walletAddress;\n      require(hasRole(_userAddress), 'Not an admin account');\n      uint256 _balance = balanceOf(_userAddress);\n      return (_userAddress, _balance);\n  }\n  \n  function getAddressBalance(address _userAddress) external view returns(address, uint256){\n      return (_userAddress, balanceOf(_userAddress));\n  }\n \n  function myAllowance() external view returns(uint256) {\n      return allowance(_owner, msg.sender);\n  }\n  \n  function increaseSpendingAllowance(bytes calldata _adminEmail, uint256 _amount) isControlPanel external returns(bool success) {\n      address _adminAddress = _getAdminAddressFromEmail(_adminEmail);\n      require(hasRole(_adminAddress), 'Not a valid admin');\n      increaseAllowance(_adminAddress, _amount);\n      return true;\n  }\n  \n  function decreaseSpendingAllowance(bytes calldata _adminEmail, uint256 _amount) isControlPanel external returns(bool success) {\n      address _adminAddress = _getAdminAddressFromEmail(_adminEmail);\n      require(hasRole(_adminAddress));\n      decreaseAllowance(_adminAddress, _amount);\n      return true;\n  }\n  \n  function _getAdminAddressFromEmail(bytes memory _adminEmail) private view returns(address){\n        address _adminAddress = adminStruct[_adminEmail].walletAddress;\n        require(hasRole(_adminAddress), 'Not a valid Admin');\n        return _adminAddress;\n  }\n  \n  function buyTokens(address buyer, uint256 amount) isControlPanel external returns(address, uint256){\n     transfer(buyer, amount);\n     return (buyer, amount);\n  } \n  \n  // Admin Logic -ENDS\n  \n  \n  // Organization Functions - STARTS\n  \n  function burnTokens(uint256 _amount, address _caller) isControlPanel callerIsAdmin(_caller) external returns(bool success){\n        _burn(_caller, _amount);\n        return true;\n    }\n    \n    function burnTokensIn(address _account, uint256 _amount, address _caller) isControlPanel() callerIsAdmin(_caller) external returns(bool success){\n        burnFrom(_account, _amount);\n        return true;\n    }\n  \n  function showOwnerDetails() external view returns(address ownerAddress, string memory ownerEmail){\n      address _ownerAddress = adminStruct[OWNER_EMAIL].walletAddress;\n      string memory _ownerEmail = string(adminStruct[OWNER_EMAIL].email);\n      return (_ownerAddress, _ownerEmail);\n  }\n  \n  function _tokenSymbol() external view returns(string memory) {\n      return symbol();\n  }\n  // Organization Functions - ENDS\n  \n  function transfer(address recipient, uint256 amount) public virtual override returns (bool) {\n        _transfer(_msgSender(), recipient, amount);\n        return true;\n  }\n  \n  function allowance(address owner, address spender) public view virtual override returns (uint256) {\n        return _allowances[owner][spender];\n    }\n    \n    function approve(address spender, uint256 amount) public virtual override returns (bool) {\n        _approve(_msgSender(), spender, amount);\n        return true;\n    }\n    \n    function increaseAllowance(address spender, uint256 addedValue) public virtual override returns (bool) {\n        _approve(_msgSender(), spender, _allowances[_msgSender()][spender].add(addedValue));\n        return true;\n    }\n    \n    function decreaseAllowance(address spender, uint256 subtractedValue) public virtual override returns (bool) {\n        _approve(_msgSender(), spender, _allowances[_msgSender()][spender].sub(subtractedValue, 'ERC20: decreased allowance below zero'));\n        return true;\n    }\n    \n     function _approve(address owner, address spender, uint256 amount) internal override virtual {\n        require(owner != address(0), 'ERC20: approve from the zero address');\n        require(spender != address(0), 'ERC20: approve to the zero address');\n\n        _allowances[owner][spender] = amount;\n        emit Approval(owner, spender, amount);\n    }\n  \n  function _transfer(address sender, address recipient, uint256 amount) internal override virtual {\n        require(sender != address(0), 'ERC20: transfer from the zero address');\n        require(recipient != address(0), 'ERC20: transfer to the zero address');\n\n        _beforeTokenTransfer(sender, recipient, amount);\n\n        _balances[sender] = _balances[sender].sub(amount, 'ERC20: transfer amount exceeds balance');\n        _balances[recipient] = _balances[recipient].add(amount);\n        emit Transfer(sender, recipient, amount);\n    }\n    \n    function _beforeTokenTransfer(address from, address to, uint256 amount) internal override virtual { }\n  \n  \n  fallback() external {\n      // I have no idea what to put here yet\n      \n  }\n \n}\n",
  "sourcePath": "C:\\Users\\abdulhafiz\\Documents\\Projects\\Github\\500ND4E\\ticketer\\contracts\\Organization.sol",
  "compiler": {
    "name": "solc",
    "version": "0.6.10+commit.00c0fcaf.Emscripten.clang"
  },
  "schemaVersion": "3.2.2",
  "updatedAt": "2020-07-21T09:53:03.748Z",
  "devdoc": {
    "methods": {
      "balanceOf(address)": {
        "details": "See {IERC20-balanceOf}."
      },
      "burn(uint256)": {
        "details": "Destroys `amount` tokens from the caller. See {ERC20-_burn}."
      },
      "burnFrom(address,uint256)": {
        "details": "Destroys `amount` tokens from `account`, deducting from the caller's allowance. See {ERC20-_burn} and {ERC20-allowance}. Requirements: - the caller must have allowance for ``accounts``'s tokens of at least `amount`."
      },
      "decimals()": {
        "details": "Returns the number of decimals used to get its user representation. For example, if `decimals` equals `2`, a balance of `505` tokens should be displayed to a user as `5,05` (`505 / 10 ** 2`). Tokens usually opt for a value of 18, imitating the relationship between Ether and Wei. This is the value {ERC20} uses, unless {_setupDecimals} is called. NOTE: This information is only used for _display_ purposes: it in no way affects any of the arithmetic of the contract, including {IERC20-balanceOf} and {IERC20-transfer}."
      },
      "name()": {
        "details": "Returns the name of the token."
      },
      "symbol()": {
        "details": "Returns the symbol of the token, usually a shorter version of the name."
      },
      "totalSupply()": {
        "details": "See {IERC20-totalSupply}."
      },
      "transferFrom(address,address,uint256)": {
        "details": "See {IERC20-transferFrom}. Emits an {Approval} event indicating the updated allowance. This is not required by the EIP. See the note at the beginning of {ERC20}; Requirements: - `sender` and `recipient` cannot be the zero address. - `sender` must have a balance of at least `amount`. - the caller must have allowance for ``sender``'s tokens of at least `amount`."
      }
    }
  },
  "userdoc": {
    "methods": {}
  }
}