{
  "contractName": "Ticketer",
  "abi": [
    {
      "inputs": [],
      "stateMutability": "nonpayable",
      "type": "constructor"
    },
    {
      "anonymous": false,
      "inputs": [
        {
          "indexed": true,
          "internalType": "address",
          "name": "previousOwner",
          "type": "address"
        },
        {
          "indexed": true,
          "internalType": "address",
          "name": "newOwner",
          "type": "address"
        }
      ],
      "name": "OwnershipTransferred",
      "type": "event"
    },
    {
      "inputs": [],
      "name": "owner",
      "outputs": [
        {
          "internalType": "address",
          "name": "",
          "type": "address"
        }
      ],
      "stateMutability": "view",
      "type": "function"
    },
    {
      "inputs": [],
      "name": "rate",
      "outputs": [
        {
          "internalType": "uint256",
          "name": "",
          "type": "uint256"
        }
      ],
      "stateMutability": "view",
      "type": "function"
    },
    {
      "inputs": [],
      "name": "renounceOwnership",
      "outputs": [],
      "stateMutability": "nonpayable",
      "type": "function"
    },
    {
      "inputs": [
        {
          "internalType": "address",
          "name": "newOwner",
          "type": "address"
        }
      ],
      "name": "transferOwnership",
      "outputs": [],
      "stateMutability": "nonpayable",
      "type": "function"
    },
    {
      "inputs": [
        {
          "internalType": "uint256",
          "name": "newRate",
          "type": "uint256"
        }
      ],
      "name": "adjustCost",
      "outputs": [
        {
          "internalType": "bool",
          "name": "",
          "type": "bool"
        }
      ],
      "stateMutability": "nonpayable",
      "type": "function"
    },
    {
      "inputs": [
        {
          "internalType": "uint256",
          "name": "_toPay",
          "type": "uint256"
        }
      ],
      "name": "howManyTokensFor",
      "outputs": [
        {
          "internalType": "uint256",
          "name": "",
          "type": "uint256"
        }
      ],
      "stateMutability": "view",
      "type": "function"
    },
    {
      "inputs": [],
      "name": "registeredOrganizationCount",
      "outputs": [
        {
          "internalType": "uint256",
          "name": "",
          "type": "uint256"
        }
      ],
      "stateMutability": "view",
      "type": "function"
    },
    {
      "inputs": [
        {
          "internalType": "string",
          "name": "orgName",
          "type": "string"
        }
      ],
      "name": "fetchOwnerDetails",
      "outputs": [
        {
          "internalType": "address",
          "name": "ownerAddress",
          "type": "address"
        },
        {
          "internalType": "string",
          "name": "ownerEmail",
          "type": "string"
        }
      ],
      "stateMutability": "view",
      "type": "function"
    },
    {
      "inputs": [
        {
          "internalType": "string",
          "name": "tokenName",
          "type": "string"
        },
        {
          "internalType": "string",
          "name": "tokenSymbol",
          "type": "string"
        },
        {
          "internalType": "string",
          "name": "organizationName",
          "type": "string"
        },
        {
          "internalType": "string",
          "name": "organizationEmail",
          "type": "string"
        },
        {
          "internalType": "string",
          "name": "creatorEmail",
          "type": "string"
        }
      ],
      "name": "createNewOrganization",
      "outputs": [
        {
          "internalType": "address",
          "name": "organization",
          "type": "address"
        },
        {
          "internalType": "address",
          "name": "owner",
          "type": "address"
        }
      ],
      "stateMutability": "payable",
      "type": "function"
    }
  ],
  "bytecode": "0x608060405234801561001057600080fd5b5060006100246001600160e01b0361007d16565b600080546001600160a01b0319166001600160a01b0383169081178255604051929350917f8be0079c531659141344cd1fd0a4f28419497f9722a3daafe3b4186f6b6457e0908290a350655af3107a4000600155610081565b3390565b61438c806100906000396000f3fe608060405260043610620000925760003560e01c80637b36587a11620000615780637b36587a146200040d5780638da5cb5b146200043b5780638fdd3c30146200046f578063d1f704151462000487578063f2fde38b14620005d35762000092565b8063209ec9eb14620000975780632c4e722e14620000d95780635c2d9fdc1462000103578063715018a614620003f3575b600080fd5b348015620000a457600080fd5b50620000c560048036036020811015620000bd57600080fd5b50356200060a565b604080519115158252519081900360200190f35b348015620000e657600080fd5b50620000f162000698565b60408051918252519081900360200190f35b620003cd600480360360a08110156200011b57600080fd5b810190602081018135600160201b8111156200013657600080fd5b8201836020820111156200014957600080fd5b803590602001918460018302840111600160201b831117156200016b57600080fd5b91908080601f0160208091040260200160405190810160405280939291908181526020018383808284376000920191909152509295949360208101935035915050600160201b811115620001be57600080fd5b820183602082011115620001d157600080fd5b803590602001918460018302840111600160201b83111715620001f357600080fd5b91908080601f0160208091040260200160405190810160405280939291908181526020018383808284376000920191909152509295949360208101935035915050600160201b8111156200024657600080fd5b8201836020820111156200025957600080fd5b803590602001918460018302840111600160201b831117156200027b57600080fd5b91908080601f0160208091040260200160405190810160405280939291908181526020018383808284376000920191909152509295949360208101935035915050600160201b811115620002ce57600080fd5b820183602082011115620002e157600080fd5b803590602001918460018302840111600160201b831117156200030357600080fd5b91908080601f0160208091040260200160405190810160405280939291908181526020018383808284376000920191909152509295949360208101935035915050600160201b8111156200035657600080fd5b8201836020820111156200036957600080fd5b803590602001918460018302840111600160201b831117156200038b57600080fd5b91908080601f0160208091040260200160405190810160405280939291908181526020018383808284376000920191909152509295506200069e945050505050565b604080516001600160a01b03938416815291909216602082015281519081900390910190f35b3480156200040057600080fd5b506200040b62000c61565b005b3480156200041a57600080fd5b50620000f1600480360360208110156200043357600080fd5b503562000d18565b3480156200044857600080fd5b506200045362000d4d565b604080516001600160a01b039092168252519081900360200190f35b3480156200047c57600080fd5b50620000f162000d5d565b3480156200049457600080fd5b506200053f60048036036020811015620004ad57600080fd5b810190602081018135600160201b811115620004c857600080fd5b820183602082011115620004db57600080fd5b803590602001918460018302840111600160201b83111715620004fd57600080fd5b91908080601f01602080910402602001604051908101604052809392919081815260200183838082843760009201919091525092955062000d70945050505050565b60405180836001600160a01b03166001600160a01b0316815260200180602001828103825283818151815260200191508051906020019080838360005b83811015620005965781810151838201526020016200057c565b50505050905090810190601f168015620005c45780820380516001836020036101000a031916815260200191505b50935050505060405180910390f35b348015620005e057600080fd5b506200040b60048036036020811015620005f957600080fd5b50356001600160a01b031662000f8b565b6000620006166200109a565b6000546001600160a01b0390811691161462000679576040805162461bcd60e51b815260206004820181905260248201527f4f776e61626c653a2063616c6c6572206973206e6f7420746865206f776e6572604482015290519081900360640190fd5b62000690826402540be40063ffffffff6200109e16565b600155919050565b60015481565b60008060003411620006e25760405162461bcd60e51b815260040180806020018281038252603d8152602001806200431a603d913960400191505060405180910390fd5b620006ed8562001103565b62000737576040805162461bcd60e51b81526020600482015260156024820152742730b6b29034b99030b63932b0b23c903a30b5b2b760591b604482015290519081900360640190fd5b600062000750600154346200119990919063ffffffff16565b90506000818989888a893360405162000769906200132a565b808881526020018060200180602001806020018060200180602001876001600160a01b03166001600160a01b0316815260200186810386528c818151815260200191508051906020019080838360005b83811015620007d3578181015183820152602001620007b9565b50505050905090810190601f168015620008015780820380516001836020036101000a031916815260200191505b5086810385528b5181528b516020918201918d019080838360005b83811015620008365781810151838201526020016200081c565b50505050905090810190601f168015620008645780820380516001836020036101000a031916815260200191505b5086810384528a5181528a516020918201918c019080838360005b83811015620008995781810151838201526020016200087f565b50505050905090810190601f168015620008c75780820380516001836020036101000a031916815260200191505b5086810383528951815289516020918201918b019080838360005b83811015620008fc578181015183820152602001620008e2565b50505050905090810190601f1680156200092a5780820380516001836020036101000a031916815260200191505b5086810382528851815288516020918201918a019080838360005b838110156200095f57818101518382015260200162000945565b50505050905090810190601f1680156200098d5780820380516001836020036101000a031916815260200191505b509c50505050505050505050505050604051809103906000f080158015620009b9573d6000803e3d6000fd5b509050620009cf60028263ffffffff620011dd16565b50336004886040518082805190602001908083835b6020831062000a055780518252601f199092019160209182019101620009e4565b51815160209384036101000a60001901801990921691161790529201948552506040519384900381018420600490810180546001600160a01b0319166001600160a01b0397909716969096179095558b51600195948d9450925082918401908083835b6020831062000a895780518252601f19909201916020918201910162000a68565b51815160209384036101000a600019018019909216911617905292019485525060405193849003810184206004908101805460ff60a01b1916600160a01b97151597909702969096179095558b518c9594869450925082918401908083835b6020831062000b095780518252601f19909201916020918201910162000ae8565b51815160209384036101000a6000190180199092169116179052920194855250604051938490038101909320845162000b4c959194919091019250905062001338565b50856004886040518082805190602001908083835b6020831062000b825780518252601f19909201916020918201910162000b61565b6001836020036101000a0380198251168184511680821785525050505050509050019150509081526020016040518091039020600101908051906020019062000bcd92919062001338565b50806004886040518082805190602001908083835b6020831062000c035780518252601f19909201916020918201910162000be2565b51815160209384036101000a6000190180199092169116179052920194855250604051938490030190922060030180546001600160a01b0319166001600160a01b039490941693909317909255509099339950975050505050505050565b62000c6b6200109a565b6000546001600160a01b0390811691161462000cce576040805162461bcd60e51b815260206004820181905260248201527f4f776e61626c653a2063616c6c6572206973206e6f7420746865206f776e6572604482015290519081900360640190fd5b600080546040516001600160a01b03909116907f8be0079c531659141344cd1fd0a4f28419497f9722a3daafe3b4186f6b6457e0908390a3600080546001600160a01b0319169055565b60015460009062000d479062000d3a846402540be40063ffffffff6200109e16565b9063ffffffff6200119916565b92915050565b6000546001600160a01b03165b90565b600062000d6b6002620011f4565b905090565b6000606060006004846040518082805190602001908083835b6020831062000daa5780518252601f19909201916020918201910162000d89565b51815160209384036101000a60001901801990921691161790529201948552506040519384900301909220600301546001600160a01b0316925062000df59150600290508262001201565b62000e47576040805162461bcd60e51b815260206004820152601e60248201527f4f7267616e697a6174696f6e206973206e6f7420726567697374657265640000604482015290519081900360640190fd5b6000819050806001600160a01b031663fbd1427c6040518163ffffffff1660e01b815260040160006040518083038186803b15801562000e8657600080fd5b505afa15801562000e9b573d6000803e3d6000fd5b505050506040513d6000823e601f3d908101601f19168201604090815281101562000ec557600080fd5b815160208301805160405192949293830192919084600160201b82111562000eec57600080fd5b90830190602082018581111562000f0257600080fd5b8251600160201b81118282018810171562000f1c57600080fd5b82525081516020918201929091019080838360005b8381101562000f4b57818101518382015260200162000f31565b50505050905090810190601f16801562000f795780820380516001836020036101000a031916815260200191505b50604052505050935093505050915091565b62000f956200109a565b6000546001600160a01b0390811691161462000ff8576040805162461bcd60e51b815260206004820181905260248201527f4f776e61626c653a2063616c6c6572206973206e6f7420746865206f776e6572604482015290519081900360640190fd5b6001600160a01b0381166200103f5760405162461bcd60e51b8152600401808060200182810382526026815260200180620042d36026913960400191505060405180910390fd5b600080546040516001600160a01b03808516939216917f8be0079c531659141344cd1fd0a4f28419497f9722a3daafe3b4186f6b6457e091a3600080546001600160a01b0319166001600160a01b0392909216919091179055565b3390565b600082620010af5750600062000d47565b82820282848281620010bd57fe5b0414620010fc5760405162461bcd60e51b8152600401808060200182810382526021815260200180620042f96021913960400191505060405180910390fd5b9392505050565b6000806004836040518082805190602001908083835b602083106200113a5780518252601f19909201916020918201910162001119565b51815160209384036101000a60001901801990921691161790529201948552506040519384900301909220600301546001600160a01b03169250620011859150600290508262001201565b156200119057600080fd5b50600192915050565b6000620010fc83836040518060400160405280601a81526020017f536166654d6174683a206469766973696f6e206279207a65726f00000000000081525062001218565b6000620010fc836001600160a01b038416620012bf565b600062000d47826200130e565b6000620010fc836001600160a01b03841662001312565b60008183620012a85760405162461bcd60e51b81526004018080602001828103825283818151815260200191508051906020019080838360005b838110156200126c57818101518382015260200162001252565b50505050905090810190601f1680156200129a5780820380516001836020036101000a031916815260200191505b509250505060405180910390fd5b506000838581620012b557fe5b0495945050505050565b6000620012cd838362001312565b620013055750815460018181018455600084815260208082209093018490558454848252828601909352604090209190915562000d47565b50600062000d47565b5490565b60009081526001919091016020526040902054151590565b612ef880620013db83390190565b828054600181600116156101000203166002900490600052602060002090601f016020900481019282601f106200137b57805160ff1916838001178555620013ab565b82800160010185558215620013ab579182015b82811115620013ab5782518255916020019190600101906200138e565b50620013b9929150620013bd565b5090565b62000d5a91905b80821115620013b95760008155600101620013c456fe60806040526000600c5560405162002ef838038062002ef8833981810160405260e08110156200002e57600080fd5b8151602083018051604051929492938301929190846401000000008211156200005657600080fd5b9083019060208201858111156200006c57600080fd5b82516401000000008111828201881017156200008757600080fd5b82525081516020918201929091019080838360005b83811015620000b65781810151838201526020016200009c565b50505050905090810190601f168015620000e45780820380516001836020036101000a031916815260200191505b50604052602001805160405193929190846401000000008211156200010857600080fd5b9083019060208201858111156200011e57600080fd5b82516401000000008111828201881017156200013957600080fd5b82525081516020918201929091019080838360005b83811015620001685781810151838201526020016200014e565b50505050905090810190601f168015620001965780820380516001836020036101000a031916815260200191505b5060405260200180516040519392919084640100000000821115620001ba57600080fd5b908301906020820185811115620001d057600080fd5b8251640100000000811182820188101715620001eb57600080fd5b82525081516020918201929091019080838360005b838110156200021a57818101518382015260200162000200565b50505050905090810190601f168015620002485780820380516001836020036101000a031916815260200191505b50604052602001805160405193929190846401000000008211156200026c57600080fd5b9083019060208201858111156200028257600080fd5b82516401000000008111828201881017156200029d57600080fd5b82525081516020918201929091019080838360005b83811015620002cc578181015183820152602001620002b2565b50505050905090810190601f168015620002fa5780820380516001836020036101000a031916815260200191505b50604052602001805160405193929190846401000000008211156200031e57600080fd5b9083019060208201858111156200033457600080fd5b82516401000000008111828201881017156200034f57600080fd5b82525081516020918201929091019080838360005b838110156200037e57818101518382015260200162000364565b50505050905090810190601f168015620003ac5780820380516001836020036101000a031916815260200191505b5060405260209081015188519093508892508791620003d1916003918501906200076d565b508051620003e79060049060208401906200076d565b505060058054601260ff1990911617905550620004128760036200066e602090811b62001ad017901c565b600d55600a80546001600160a01b0319166001600160a01b038316179055600f87905581516200044a90600b9060208501906200076d565b5030600090815260116020908152604090912084516200046d928601906200076d565b50306000908152601160209081526040909120855162000496926001909201918701906200076d565b50306000818152601160209081526040918290206002810180546001600160a01b03199081169095179055600a54600390910180549094166001600160a01b0391909116179092555183518492601292849290918291908401908083835b60208310620005155780518252601f199092019160209182019101620004f4565b51815160209384036101000a600019018019909216911617905292019485525060405193849003810190932084516200055895919491909101925090506200076d565b50600a5460405183516001600160a01b03909216916012918591819060208401908083835b602083106200059e5780518252601f1990920191602091820191016200057d565b51815160209384036101000a6000190180199092169116179052920194855250604051938490030190922060010180546001600160a01b0319166001600160a01b03949094169390931790925550620005f89050620006bf565b6012836040518082805190602001908083835b602083106200062c5780518252601f1990920191602091820191016200060b565b51815160209384036101000a6000190180199092169116179052920194855250604051938490030190922060020192909255506200080f975050505050505050565b6000620006b883836040518060400160405280601a81526020017f536166654d6174683a206469766973696f6e206279207a65726f000000000000815250620006c660201b60201c565b9392505050565b6002545b90565b60008183620007565760405162461bcd60e51b81526004018080602001828103825283818151815260200191508051906020019080838360005b838110156200071a57818101518382015260200162000700565b50505050905090810190601f168015620007485780820380516001836020036101000a031916815260200191505b509250505060405180910390fd5b5060008385816200076357fe5b0495945050505050565b828054600181600116156101000203166002900490600052602060002090601f016020900481019282601f10620007b057805160ff1916838001178555620007e0565b82800160010185558215620007e0579182015b82811115620007e0578251825591602001919060010190620007c3565b50620007ee929150620007f2565b5090565b620006c391905b80821115620007ee5760008155600101620007f9565b6126d9806200081f6000396000f3fe608060405234801561001057600080fd5b50600436106102065760003560e01c806369376af81161011a5780639730b305116100ad578063b068c1681161007c578063b068c1681461099b578063dd62ed3e14610a97578063ecf35cca14610ac5578063f6244c8f14610acd578063fbd1427c14610b6057610206565b80639730b305146108a95780639efb3d4d146108d5578063a457c2d714610943578063a9059cbb1461096f57610206565b806379cc6790116100e957806379cc6790146107e15780637ef09bca1461080d57806391d930771461083357806395d89b41146108a157610206565b806369376af8146106fe57806370a082311461070657806373a1e5481461072c57806373ef0ba51461079a57610206565b80632cc9c1511161019d578063395093511161016c578063395093511461051a5780633e2d70041461054657806342966c68146105675780635687cd13146105845780635e5fb5f3146105f257610206565b80632cc9c151146104a85780632ddbd13a146104ce578063313ce567146104d657806335046722146104f457610206565b8063158a2ae0116101d9578063158a2ae01461034a57806318160ddd1461045057806323b872dd1461046a5780632b7832b3146104a057610206565b806306fdde03146102085780630752881a14610285578063095ea7b3146102d45780630f963a1c14610314575b005b610210610bb1565b6040805160208082528351818301528351919283929083019185019080838360005b8381101561024a578181015183820152602001610232565b50505050905090810190601f1680156102775780820380516001836020036101000a031916815260200191505b509250505060405180910390f35b6102b16004803603604081101561029b57600080fd5b506001600160a01b038135169060200135610c48565b604080516001600160a01b03909316835260208301919091528051918290030190f35b610300600480360360408110156102ea57600080fd5b506001600160a01b038135169060200135610c77565b604080519115158252519081900360200190f35b6103006004803603606081101561032a57600080fd5b506001600160a01b03813581169160208101359160409091013516610c95565b610352610d09565b6040518085815260200180602001846001600160a01b03166001600160a01b0316815260200180602001838103835286818151815260200191508051906020019080838360005b838110156103b1578181015183820152602001610399565b50505050905090810190601f1680156103de5780820380516001836020036101000a031916815260200191505b50838103825284518152845160209182019186019080838360005b838110156104115781810151838201526020016103f9565b50505050905090810190601f16801561043e5780820380516001836020036101000a031916815260200191505b50965050505050505060405180910390f35b610458610e2f565b60408051918252519081900360200190f35b6103006004803603606081101561048057600080fd5b506001600160a01b03813581169160208101359091169060400135610e35565b610458610ec2565b610300600480360360208110156104be57600080fd5b50356001600160a01b0316610ed3565b610458610fd8565b6104de610fe2565b6040805160ff9092168252519081900360200190f35b6102b16004803603602081101561050a57600080fd5b50356001600160a01b0316610feb565b6103006004803603604081101561053057600080fd5b506001600160a01b038135169060200135611001565b61054e611055565b6040805192835260208301919091528051918290030190f35b6102066004803603602081101561057d57600080fd5b50356110a5565b6102b16004803603602081101561059a57600080fd5b810190602081018135600160201b8111156105b457600080fd5b8201836020820111156105c657600080fd5b803590602001918460018302840111600160201b831117156105e757600080fd5b5090925090506110b9565b61067f6004803603608081101561060857600080fd5b6001600160a01b038235169190810190604081016020820135600160201b81111561063257600080fd5b82018360208201111561064457600080fd5b803590602001918460018302840111600160201b8311171561066557600080fd5b9193509150803590602001356001600160a01b031661115e565b6040518080602001838152602001828103825284818151815260200191508051906020019080838360005b838110156106c25781810151838201526020016106aa565b50505050905090810190601f1680156106ef5780820380516001836020036101000a031916815260200191505b50935050505060405180910390f35b6104586112e2565b6104586004803603602081101561071c57600080fd5b50356001600160a01b03166112fb565b6103006004803603604081101561074257600080fd5b810190602081018135600160201b81111561075c57600080fd5b82018360208201111561076e57600080fd5b803590602001918460018302840111600160201b8311171561078f57600080fd5b919350915035611316565b6107c6600480360360408110156107b057600080fd5b50803590602001356001600160a01b03166113d7565b60408051921515835260208301919091528051918290030190f35b610206600480360360408110156107f757600080fd5b506001600160a01b038135169060200135611462565b6103006004803603602081101561082357600080fd5b50356001600160a01b03166114c2565b61085f6004803603604081101561084957600080fd5b50803590602001356001600160a01b03166114d5565b604051808381526020018060200182810382528381815181526020019150805190602001908083836000838110156106c25781810151838201526020016106aa565b610210611581565b610300600480360360408110156108bf57600080fd5b50803590602001356001600160a01b03166115e2565b610300600480360360408110156108eb57600080fd5b810190602081018135600160201b81111561090557600080fd5b82018360208201111561091757600080fd5b803590602001918460018302840111600160201b8311171561093857600080fd5b91935091503561164b565b6103006004803603604081101561095957600080fd5b506001600160a01b0381351690602001356116c0565b6103006004803603604081101561098557600080fd5b506001600160a01b03813516906020013561172e565b610a09600480360360208110156109b157600080fd5b810190602081018135600160201b8111156109cb57600080fd5b8201836020820111156109dd57600080fd5b803590602001918460018302840111600160201b831117156109fe57600080fd5b509092509050611742565b604080516001600160a01b0385168152908101829052606060208083018281528551928401929092528451608084019186019080838360005b83811015610a5a578181015183820152602001610a42565b50505050905090810190601f168015610a875780820380516001836020036101000a031916815260200191505b5094505050505060405180910390f35b61045860048036036040811015610aad57600080fd5b506001600160a01b0381358116916020013516611847565b610210611872565b610b4460048036036040811015610ae357600080fd5b810190602081018135600160201b811115610afd57600080fd5b820183602082011115610b0f57600080fd5b803590602001918460018302840111600160201b83111715610b3057600080fd5b9193509150356001600160a01b031661187c565b604080516001600160a01b039092168252519081900360200190f35b610b6861193b565b604080516001600160a01b0384168152602080820183815284519383019390935283519192916060840191850190808383600083156106c25781810151838201526020016106aa565b60038054604080516020601f6002600019610100600188161502019095169490940493840181900481028201810190925282815260609390929091830182828015610c3d5780601f10610c1257610100808354040283529160200191610c3d565b820191906000526020600020905b815481529060010190602001808311610c2057829003601f168201915b505050505090505b90565b600e5460009081906001600160a01b03163314610c6457600080fd5b610c6e848461172e565b50929391925050565b6000610c8b610c84611b19565b8484611b1d565b5060015b92915050565b600e546000906001600160a01b03163314610caf57600080fd5b81610cb9816114c2565b610cf45760405162461bcd60e51b815260040180806020018281038252602981526020018061247c6029913960400191505060405180910390fd5b610cfe8585611462565b506001949350505050565b6000606060006060610d19610e2f565b6012600b6040518082805460018160011615610100020316600290048015610d785780601f10610d56576101008083540402835291820191610d78565b820191906000526020600020905b815481529060010190602001808311610d64575b5050928352505060405190819003602001902030610d94611581565b8254604080516020601f60026000196101006001881615020190951694909404938401819004810282018101909252828152918591830182828015610e1a5780601f10610def57610100808354040283529160200191610e1a565b820191906000526020600020905b815481529060010190602001808311610dfd57829003601f168201915b50505050509250935093509350935090919293565b60025490565b6000610e42848484611c09565b610eb884610e4e611b19565b610eb385604051806060016040528060288152602001612595602891396001600160a01b038a16600090815260016020526040812090610e8c611b19565b6001600160a01b03168152602081019190915260400160002054919063ffffffff611d7216565b611b1d565b5060019392505050565b6000610ece6008611e09565b905090565b600a546000906001600160a01b03838116911614610f225760405162461bcd60e51b81526004018080602001828103825260228152602001806124c76022913960400191505060405180910390fd5b60105460ff1615610f645760405162461bcd60e51b815260040180806020018281038252606581526020018061250f6065913960800191505060405180910390fd5b60108054600160ff19909116179055600a80546001600160a01b03199081166001600160a01b03851617909155600e805433921682179055610fa890600890611e14565b50610fba60088363ffffffff611e1416565b50610fc733600f54611e29565b610c8b82610fd3610e2f565b610c77565b6000610ece610e2f565b60055460ff1690565b60008082610ff8846112fb565b91509150915091565b6000610c8b61100e611b19565b84610eb3856007600061101f611b19565b6001600160a01b03908116825260208083019390935260409182016000908120918c16815292529020549063ffffffff611f2516565b6000806000600c54116110995760405162461bcd60e51b81526004018080602001828103825260348152602001806125e16034913960400191505060405180910390fd5b5050600c54600d549091565b6110b66110b0611b19565b82611f7f565b50565b6000806000601285856040518083838082843791909101948552505060405192839003602001909220600101546001600160a01b031692506110fe91508290506114c2565b611146576040805162461bcd60e51b8152602060048201526014602482015273139bdd08185b8818591b5a5b881858d8dbdd5b9d60621b604482015290519081900360640190fd5b6000611151826112fb565b9196919550909350505050565b600e546060906000906001600160a01b0316331461117b57600080fd5b600a5483906001600160a01b038083169116146111dc576040805162461bcd60e51b815260206004820152601a6024820152794f6e6c7920746865206f776e65722063616e20646f207468697360301b604482015290519081900360640190fd5b6111ed60088963ffffffff61208716565b156111f757600080fd5b868660128989604051808383808284379190910194855250506040519283900360200190922061122d949093909250905061239e565b508760128888604051808383808284379190910194855250506040519283900360200190922060010180546001600160a01b03949094166001600160a01b0319909416939093179092555061128b905060088963ffffffff611e1416565b506112968886610c77565b5086868682828080601f016020809104026020016040519081016040528093929190818152602001838380828437600092019190915250929e939d50929b505050505050505050505050565b600a54600090610ece906001600160a01b031633611847565b6001600160a01b031660009081526020819052604090205490565b600e546000906001600160a01b0316331461133057600080fd5b600061137185858080601f01602080910402602001604051908101604052809392919081815260200183838082843760009201919091525061209c92505050565b905061137c816114c2565b6113c1576040805162461bcd60e51b81526020600482015260116024820152702737ba1030903b30b634b21030b236b4b760791b604482015290519081900360640190fd5b6113cb8184611001565b50600195945050505050565b600e5460009081906001600160a01b031633146113f357600080fd5b600a5483906001600160a01b03808316911614611454576040805162461bcd60e51b815260206004820152601a6024820152794f6e6c7920746865206f776e65722063616e20646f207468697360301b604482015290519081900360640190fd5b505050600d82905550600191565b600061149f826040518060600160405280602481526020016125bd602491396114928661148d611b19565b611847565b919063ffffffff611d7216565b90506114b3836114ad611b19565b83611b1d565b6114bd8383611f7f565b505050565b6000610c8f60088363ffffffff61208716565b600e546000906060906001600160a01b031633146114f257600080fd5b600a5483906001600160a01b03808316911614611553576040805162461bcd60e51b815260206004820152601a6024820152794f6e6c7920746865206f776e65722063616e20646f207468697360301b604482015290519081900360640190fd5b611568856402540be40063ffffffff61215d16565b600c819055611575611581565b92509250509250929050565b60048054604080516020601f6002600019610100600188161502019095169490940493840181900481028201810190925282815260609390929091830182828015610c3d5780601f10610c1257610100808354040283529160200191610c3d565b600e546000906001600160a01b031633146115fc57600080fd5b81611606816114c2565b6116415760405162461bcd60e51b815260040180806020018281038252602981526020018061247c6029913960400191505060405180910390fd5b610eb88385611f7f565b600e546000906001600160a01b0316331461166557600080fd5b60006116a685858080601f01602080910402602001604051908101604052809392919081815260200183838082843760009201919091525061209c92505050565b90506116b1816114c2565b6116ba57600080fd5b6113cb81845b6000610c8b6116cd611b19565b84610eb38560405180606001604052806025815260200161267f60259139600760006116f7611b19565b6001600160a01b03908116825260208083019390935260409182016000908120918d1681529252902054919063ffffffff611d7216565b6000610c8b61173b611b19565b8484611c09565b60006060600080601286866040518083838082843791909101948552505060405192839003602001909220600101546001600160a01b0316925061178991508290506114c2565b6117ce576040805162461bcd60e51b81526020600482015260116024820152702737ba1030903b30b634b21030b236b4b760791b604482015290519081900360640190fd5b606086868080601f016020809104026020016040519081016040528093929190818152602001838380828437600092018290525060405194955093601293508b92508a91508083838082843791909101948552505060405192839003602001909220600201549497509295509293505050509250925092565b6001600160a01b03918216600090815260076020908152604080832093909416825291909152205490565b6060610ece611581565b600e546000906001600160a01b0316331461189657600080fd5b816118a0816114c2565b6118db5760405162461bcd60e51b815260040180806020018281038252602981526020018061247c6029913960400191505060405180910390fd5b6000601286866040518083838082843791909101948552505060405192839003602001909220600101546001600160a01b031692506119259150600890508263ffffffff6121b616565b50611931816000610c77565b5095945050505050565b6000606060006012600b60405180828054600181600116156101000203166002900480156119a05780601f1061197e5761010080835404028352918201916119a0565b820191906000526020600020905b81548152906001019060200180831161198c575b5050915050908152602001604051809103902060010160009054906101000a90046001600160a01b0316905060606012600b6040518082805460018160011615610100020316600290048015611a2d5780601f10611a0b576101008083540402835291820191611a2d565b820191906000526020600020905b815481529060010190602001808311611a19575b505092835250506040805160209281900383018120805460026001821615610100026000190190911604601f81018590048502830185019093528282529092909190830182828015611ac05780601f10611a9557610100808354040283529160200191611ac0565b820191906000526020600020905b815481529060010190602001808311611aa357829003601f168201915b5095975092955050505050509091565b6000611b1283836040518060400160405280601a81526020017f536166654d6174683a206469766973696f6e206279207a65726f0000000000008152506121cb565b9392505050565b3390565b6001600160a01b038316611b625760405162461bcd60e51b815260040180806020018281038252602481526020018061265b6024913960400191505060405180910390fd5b6001600160a01b038216611ba75760405162461bcd60e51b81526004018080602001828103825260228152602001806124a56022913960400191505060405180910390fd5b6001600160a01b03808416600081815260076020908152604080832094871680845294825291829020859055815185815291517f8c5be1e5ebec7d5bd14f71427d1e84f3dd0314c0f7b2291e5b200ac8c7c3b9259281900390910190a3505050565b6001600160a01b038316611c4e5760405162461bcd60e51b81526004018080602001828103825260258152602001806126366025913960400191505060405180910390fd5b6001600160a01b038216611c935760405162461bcd60e51b81526004018080602001828103825260238152602001806124376023913960400191505060405180910390fd5b611c9e8383836114bd565b611ce1816040518060600160405280602681526020016124e9602691396001600160a01b038616600090815260066020526040902054919063ffffffff611d7216565b6001600160a01b038085166000908152600660205260408082209390935590841681522054611d16908263ffffffff611f2516565b6001600160a01b0380841660008181526006602090815260409182902094909455805185815290519193928716927fddf252ad1be2c89b69c2b068fc378daa952ba7f163c4a11628f55a4df523b3ef92918290030190a3505050565b60008184841115611e015760405162461bcd60e51b81526004018080602001828103825283818151815260200191508051906020019080838360005b83811015611dc6578181015183820152602001611dae565b50505050905090810190601f168015611df35780820380516001836020036101000a031916815260200191505b509250505060405180910390fd5b505050900390565b6000610c8f82612230565b6000611b12836001600160a01b038416612234565b6001600160a01b038216611e84576040805162461bcd60e51b815260206004820152601f60248201527f45524332303a206d696e7420746f20746865207a65726f206164647265737300604482015290519081900360640190fd5b611e90600083836114bd565b600254611ea3908263ffffffff611f2516565b6002556001600160a01b038216600090815260208190526040902054611ecf908263ffffffff611f2516565b6001600160a01b0383166000818152602081815260408083209490945583518581529351929391927fddf252ad1be2c89b69c2b068fc378daa952ba7f163c4a11628f55a4df523b3ef9281900390910190a35050565b600082820183811015611b12576040805162461bcd60e51b815260206004820152601b60248201527f536166654d6174683a206164646974696f6e206f766572666c6f770000000000604482015290519081900360640190fd5b6001600160a01b038216611fc45760405162461bcd60e51b81526004018080602001828103825260218152602001806126156021913960400191505060405180910390fd5b611fd0826000836114bd565b6120138160405180606001604052806022815260200161245a602291396001600160a01b038516600090815260208190526040902054919063ffffffff611d7216565b6001600160a01b03831660009081526020819052604090205560025461203f908263ffffffff61227e16565b6002556040805182815290516000916001600160a01b038516917fddf252ad1be2c89b69c2b068fc378daa952ba7f163c4a11628f55a4df523b3ef9181900360200190a35050565b6000611b12836001600160a01b0384166122c0565b6000806012836040518082805190602001908083835b602083106120d15780518252601f1990920191602091820191016120b2565b51815160209384036101000a60001901801990921691161790529201948552506040519384900301909220600101546001600160a01b0316925061211891508290506114c2565b610c8f576040805162461bcd60e51b81526020600482015260116024820152702737ba1030903b30b634b21020b236b4b760791b604482015290519081900360640190fd5b60008261216c57506000610c8f565b8282028284828161217957fe5b0414611b125760405162461bcd60e51b81526004018080602001828103825260218152602001806125746021913960400191505060405180910390fd5b6000611b12836001600160a01b0384166122d8565b6000818361221a5760405162461bcd60e51b8152602060048201818152835160248401528351909283926044909101919085019080838360008315611dc6578181015183820152602001611dae565b50600083858161222657fe5b0495945050505050565b5490565b600061224083836122c0565b61227657508154600181810184556000848152602080822090930184905584548482528286019093526040902091909155610c8f565b506000610c8f565b6000611b1283836040518060400160405280601e81526020017f536166654d6174683a207375627472616374696f6e206f766572666c6f770000815250611d72565b60009081526001919091016020526040902054151590565b60008181526001830160205260408120548015612394578354600019808301919081019060009087908390811061230b57fe5b906000526020600020015490508087600001848154811061232857fe5b60009182526020808320909101929092558281526001898101909252604090209084019055865487908061235857fe5b60019003818190600052602060002001600090559055866001016000878152602001908152602001600020600090556001945050505050610c8f565b6000915050610c8f565b828054600181600116156101000203166002900490600052602060002090601f016020900481019282601f106123df5782800160ff1982351617855561240c565b8280016001018555821561240c579182015b8281111561240c5782358255916020019190600101906123f1565b5061241892915061241c565b5090565b610c4591905b80821115612418576000815560010161242256fe45524332303a207472616e7366657220746f20746865207a65726f206164647265737345524332303a206275726e20616d6f756e7420657863656564732062616c616e6365596f7520617265206e6f7420616e2061646d696e206f662074686973206f7267616e697a6174696f6e45524332303a20617070726f766520746f20746865207a65726f2061646472657373596f752063616e6e6f7420636c61696d2077686174206973206e6f7420796f75727345524332303a207472616e7366657220616d6f756e7420657863656564732062616c616e636554686973206163636f756e742068617320616c7265616479206265656e2076657269666965642c20706c6561736520676f20746f2074686520636f6e74726f6c2070616e656c20746f20696e7465727261637420776974682074686520636f6e7472616374536166654d6174683a206d756c7469706c69636174696f6e206f766572666c6f7745524332303a207472616e7366657220616d6f756e74206578636565647320616c6c6f77616e636545524332303a206275726e20616d6f756e74206578636565647320616c6c6f77616e636541646d696e2069732079657420746f2073657420746865207261746520666f72207468697320746f6b656e732f7469636b65747345524332303a206275726e2066726f6d20746865207a65726f206164647265737345524332303a207472616e736665722066726f6d20746865207a65726f206164647265737345524332303a20617070726f76652066726f6d20746865207a65726f206164647265737345524332303a2064656372656173656420616c6c6f77616e63652062656c6f77207a65726fa2646970667358221220a718c1eb890975a036c8323b9a651d3f7ff89fcc31a83ee096007fd03879e55b64736f6c634300060a00334f776e61626c653a206e6577206f776e657220697320746865207a65726f2061646472657373536166654d6174683a206d756c7469706c69636174696f6e206f766572666c6f77596f75206e65656420746f2070617920736f6d657468696e6720736f2077652063616e206b6565702072756e6e696e672074686520627573696e657373a2646970667358221220427938ebf7a6ea360bd149ec873e53d8be399153f28e93a454c8166f8854261864736f6c634300060a0033",
  "immutableReferences": {},
  "source": "//SPDX-License-Identifier: MIT\npragma solidity >= 0.5.0 < 0.7.0;\n\nimport '../node_modules/@openzeppelin/contracts/utils/Strings.sol';\nimport '../node_modules/@openzeppelin/contracts/access/Ownable.sol';\nimport '../node_modules/@openzeppelin/contracts/utils/ReentrancyGuard.sol';\nimport './Organization.sol';\n\ncontract Ticketer is Ownable {\n    using SafeMath for uint256; \n    using Strings for string; \n    uint256 public rate;\n    using EnumerableSet for EnumerableSet.AddressSet;\n    using Address for address;\n    \n    constructor () public {\n        rate = 0.0001 ether;\n    }\n    \n    EnumerableSet.AddressSet private registeredOrganizations;\n\n    struct OrganizationStruct {\n        bytes organizationName;\n        bytes organizationEmail;\n        bytes organizationOwnerEmail;\n        address organizationAddress;\n        address organizationOwner;\n        bool nameTaken;\n    }\n    \n    function adjustCost(uint256 newRate) public onlyOwner() returns(bool) {\n        rate = newRate.mul(0.00000001 ether);\n    }\n    \n    mapping (bytes => OrganizationStruct) private organizations;\n    // mapping(address => OrganizationStruct) private organizations;\n    \n    modifier isRegistered (string memory _orgName) {\n        address orgAddress = _fetchOrgAddress(_orgName);\n        require(registeredOrganizations.contains(orgAddress), \"No such organization registered with ticketer\");\n        _;\n    }\n    \n    function howManyTokensFor(uint256 _toPay) public view returns(uint256) {\n        return (_toPay.mul(0.00000001 ether)).div(rate);\n    }\n    \n    function registeredOrganizationCount () view public returns(uint256) {\n        return registeredOrganizations.length();\n    }\n    \n    function _fetchOrgAddress(string memory _orgName) view private returns(address){\n        return organizations[bytes(_orgName)].organizationAddress;\n    }\n    \n\n    function _organizationInstance(string memory orgName) view private returns(Organization) {\n        address orgAddress = _fetchOrgAddress(orgName);\n          Organization organization = Organization(orgAddress);\n          return organization;\n    }\n    \n    function fetchOwnerDetails(string memory orgName) view public returns(address ownerAddress, string memory ownerEmail){\n        address orgAddress = organizations[bytes(orgName)].organizationAddress;\n        require(registeredOrganizations.contains(orgAddress), \"Organization is not registered\");\n        Organization organization = Organization(orgAddress);\n        return organization.showOwnerDetails();\n    }\n    \n    function notExits(string memory _name) private view returns(bool){\n        address orgAddress = organizations[bytes(_name)].organizationAddress;\n        require(!registeredOrganizations.contains(orgAddress));\n        return true;\n    }\n    \n    function createNewOrganization(\n        string memory tokenName,\n        string memory tokenSymbol,\n        string memory organizationName,\n        string memory organizationEmail,\n        string memory creatorEmail\n    ) public payable returns(address organization, address owner) {\n        require(msg.value > 0 ether, \"You need to pay something so we can keep running the business\");\n        // require(!organizations[bytes(organizationName)].nameTaken, \"Name is already taken\");\n        require(notExits(organizationName), \"Name is already taken\");\n        uint256 _tokenAmount = msg.value.div(rate);\n\n        Organization newOrganization = new Organization(\n            _tokenAmount,\n            tokenName,\n            tokenSymbol,\n            bytes(organizationEmail),\n            bytes(organizationName),\n            bytes(creatorEmail),\n            // address(this),\n            msg.sender\n        );\n        \n        registeredOrganizations.add(address(newOrganization));\n        organizations[bytes(organizationName)].organizationOwner = msg.sender; \n        organizations[bytes(organizationName)].nameTaken = true; \n        organizations[bytes(organizationName)].organizationName = bytes(organizationName); \n        organizations[bytes(organizationName)].organizationEmail = bytes(organizationEmail);\n        organizations[bytes(organizationName)].organizationAddress = address(newOrganization);\n        return (address(newOrganization), msg.sender);\n    }\n}",
  "sourcePath": "C:\\Users\\abdulhafiz\\Documents\\Projects\\Github\\500ND4E\\ticketer\\contracts\\Ticketer.sol",
  "compiler": {
    "name": "solc",
    "version": "0.6.10+commit.00c0fcaf.Emscripten.clang"
  },
  "schemaVersion": "3.2.2",
  "updatedAt": "2020-07-21T09:53:03.815Z",
  "devdoc": {
    "methods": {
      "owner()": {
        "details": "Returns the address of the current owner."
      },
      "renounceOwnership()": {
        "details": "Leaves the contract without owner. It will not be possible to call `onlyOwner` functions anymore. Can only be called by the current owner. NOTE: Renouncing ownership will leave the contract without an owner, thereby removing any functionality that is only available to the owner."
      },
      "transferOwnership(address)": {
        "details": "Transfers ownership of the contract to a new account (`newOwner`). Can only be called by the current owner."
      }
    }
  },
  "userdoc": {
    "methods": {}
  }
}